{
	"contracts/StorageFactory.sol": {
		"StorageFactory": {
			"abi": [
				{
					"inputs": [],
					"name": "createSimpleSTorageContract",
					"outputs": [],
					"stateMutability": "nonpayable",
					"type": "function"
				},
				{
					"inputs": [],
					"name": "simpleStorage",
					"outputs": [
						{
							"internalType": "contract SimpleStorage",
							"name": "",
							"type": "address"
						}
					],
					"stateMutability": "view",
					"type": "function"
				}
			],
			"devdoc": {
				"kind": "dev",
				"methods": {},
				"version": 1
			},
			"evm": {
				"assembly": "    /* \"contracts/StorageFactory.sol\":91:267  contract StorageFactory {... */\n  mstore(0x40, 0x80)\n  callvalue\n  dup1\n  iszero\n  tag_1\n  jumpi\n  0x00\n  dup1\n  revert\ntag_1:\n  pop\n  dataSize(sub_0)\n  dup1\n  dataOffset(sub_0)\n  0x00\n  codecopy\n  0x00\n  return\nstop\n\nsub_0: assembly {\n        /* \"contracts/StorageFactory.sol\":91:267  contract StorageFactory {... */\n      mstore(0x40, 0x80)\n      callvalue\n      dup1\n      iszero\n      tag_1\n      jumpi\n      0x00\n      dup1\n      revert\n    tag_1:\n      pop\n      jumpi(tag_2, lt(calldatasize, 0x04))\n      shr(0xe0, calldataload(0x00))\n      dup1\n      0x540d719e\n      eq\n      tag_3\n      jumpi\n      dup1\n      0x6be0d6bf\n      eq\n      tag_4\n      jumpi\n    tag_2:\n      0x00\n      dup1\n      revert\n        /* \"contracts/StorageFactory.sol\":163:264  function createSimpleSTorageContract () public {... */\n    tag_3:\n      tag_5\n      tag_6\n      jump\t// in\n    tag_5:\n      stop\n        /* \"contracts/StorageFactory.sol\":122:156  SimpleStorage public simpleStorage */\n    tag_4:\n      tag_7\n      tag_8\n      jump\t// in\n    tag_7:\n      mload(0x40)\n      tag_9\n      swap2\n      swap1\n      tag_10\n      jump\t// in\n    tag_9:\n      mload(0x40)\n      dup1\n      swap2\n      sub\n      swap1\n      return\n        /* \"contracts/StorageFactory.sol\":163:264  function createSimpleSTorageContract () public {... */\n    tag_6:\n        /* \"contracts/StorageFactory.sol\":237:256  new SimpleStorage() */\n      mload(0x40)\n      tag_12\n      swap1\n      tag_13\n      jump\t// in\n    tag_12:\n      mload(0x40)\n      dup1\n      swap2\n      sub\n      swap1\n      0x00\n      create\n      dup1\n      iszero\n      dup1\n      iszero\n      tag_14\n      jumpi\n      returndatasize\n      0x00\n      dup1\n      returndatacopy\n      revert(0x00, returndatasize)\n    tag_14:\n      pop\n        /* \"contracts/StorageFactory.sol\":221:234  simpleStorage */\n      0x00\n      dup1\n        /* \"contracts/StorageFactory.sol\":221:256  simpleStorage = new SimpleStorage() */\n      0x0100\n      exp\n      dup2\n      sload\n      dup2\n      0xffffffffffffffffffffffffffffffffffffffff\n      mul\n      not\n      and\n      swap1\n      dup4\n      0xffffffffffffffffffffffffffffffffffffffff\n      and\n      mul\n      or\n      swap1\n      sstore\n      pop\n        /* \"contracts/StorageFactory.sol\":163:264  function createSimpleSTorageContract () public {... */\n      jump\t// out\n        /* \"contracts/StorageFactory.sol\":122:156  SimpleStorage public simpleStorage */\n    tag_8:\n      0x00\n      dup1\n      sload\n      swap1\n      0x0100\n      exp\n      swap1\n      div\n      0xffffffffffffffffffffffffffffffffffffffff\n      and\n      dup2\n      jump\t// out\n    tag_13:\n      dataSize(sub_0)\n      dup1\n      dataOffset(sub_0)\n      dup4\n      codecopy\n      add\n      swap1\n      jump\t// out\n        /* \"#utility.yul\":7:133   */\n    tag_15:\n        /* \"#utility.yul\":44:51   */\n      0x00\n        /* \"#utility.yul\":84:126   */\n      0xffffffffffffffffffffffffffffffffffffffff\n        /* \"#utility.yul\":77:82   */\n      dup3\n        /* \"#utility.yul\":73:127   */\n      and\n        /* \"#utility.yul\":62:127   */\n      swap1\n      pop\n        /* \"#utility.yul\":7:133   */\n      swap2\n      swap1\n      pop\n      jump\t// out\n        /* \"#utility.yul\":139:199   */\n    tag_16:\n        /* \"#utility.yul\":167:170   */\n      0x00\n        /* \"#utility.yul\":188:193   */\n      dup2\n        /* \"#utility.yul\":181:193   */\n      swap1\n      pop\n        /* \"#utility.yul\":139:199   */\n      swap2\n      swap1\n      pop\n      jump\t// out\n        /* \"#utility.yul\":205:347   */\n    tag_17:\n        /* \"#utility.yul\":255:264   */\n      0x00\n        /* \"#utility.yul\":288:341   */\n      tag_25\n        /* \"#utility.yul\":306:340   */\n      tag_26\n        /* \"#utility.yul\":315:339   */\n      tag_27\n        /* \"#utility.yul\":333:338   */\n      dup5\n        /* \"#utility.yul\":315:339   */\n      tag_15\n      jump\t// in\n    tag_27:\n        /* \"#utility.yul\":306:340   */\n      tag_16\n      jump\t// in\n    tag_26:\n        /* \"#utility.yul\":288:341   */\n      tag_15\n      jump\t// in\n    tag_25:\n        /* \"#utility.yul\":275:341   */\n      swap1\n      pop\n        /* \"#utility.yul\":205:347   */\n      swap2\n      swap1\n      pop\n      jump\t// out\n        /* \"#utility.yul\":353:479   */\n    tag_18:\n        /* \"#utility.yul\":403:412   */\n      0x00\n        /* \"#utility.yul\":436:473   */\n      tag_29\n        /* \"#utility.yul\":467:472   */\n      dup3\n        /* \"#utility.yul\":436:473   */\n      tag_17\n      jump\t// in\n    tag_29:\n        /* \"#utility.yul\":423:473   */\n      swap1\n      pop\n        /* \"#utility.yul\":353:479   */\n      swap2\n      swap1\n      pop\n      jump\t// out\n        /* \"#utility.yul\":485:631   */\n    tag_19:\n        /* \"#utility.yul\":555:564   */\n      0x00\n        /* \"#utility.yul\":588:625   */\n      tag_31\n        /* \"#utility.yul\":619:624   */\n      dup3\n        /* \"#utility.yul\":588:625   */\n      tag_18\n      jump\t// in\n    tag_31:\n        /* \"#utility.yul\":575:625   */\n      swap1\n      pop\n        /* \"#utility.yul\":485:631   */\n      swap2\n      swap1\n      pop\n      jump\t// out\n        /* \"#utility.yul\":637:808   */\n    tag_20:\n        /* \"#utility.yul\":744:801   */\n      tag_33\n        /* \"#utility.yul\":795:800   */\n      dup2\n        /* \"#utility.yul\":744:801   */\n      tag_19\n      jump\t// in\n    tag_33:\n        /* \"#utility.yul\":739:742   */\n      dup3\n        /* \"#utility.yul\":732:802   */\n      mstore\n        /* \"#utility.yul\":637:808   */\n      pop\n      pop\n      jump\t// out\n        /* \"#utility.yul\":814:1076   */\n    tag_10:\n        /* \"#utility.yul\":927:931   */\n      0x00\n        /* \"#utility.yul\":965:967   */\n      0x20\n        /* \"#utility.yul\":954:963   */\n      dup3\n        /* \"#utility.yul\":950:968   */\n      add\n        /* \"#utility.yul\":942:968   */\n      swap1\n      pop\n        /* \"#utility.yul\":978:1069   */\n      tag_35\n        /* \"#utility.yul\":1066:1067   */\n      0x00\n        /* \"#utility.yul\":1055:1064   */\n      dup4\n        /* \"#utility.yul\":1051:1068   */\n      add\n        /* \"#utility.yul\":1042:1048   */\n      dup5\n        /* \"#utility.yul\":978:1069   */\n      tag_20\n      jump\t// in\n    tag_35:\n        /* \"#utility.yul\":814:1076   */\n      swap3\n      swap2\n      pop\n      pop\n      jump\t// out\n    stop\n\n    sub_0: assembly {\n            /* \"contracts/SimpleStorage.sol\":60:865  contract SimpleStorage {... */\n          mstore(0x40, 0x80)\n            /* \"contracts/SimpleStorage.sol\":193:227  People({favNum: 2, name:'Chahat'}) */\n          mload(0x40)\n          dup1\n          0x40\n          add\n          0x40\n          mstore\n          dup1\n            /* \"contracts/SimpleStorage.sol\":209:210  2 */\n          0x02\n            /* \"contracts/SimpleStorage.sol\":193:227  People({favNum: 2, name:'Chahat'}) */\n          dup2\n          mstore\n          0x20\n          add\n          mload(0x40)\n          dup1\n          0x40\n          add\n          0x40\n          mstore\n          dup1\n          0x06\n          dup2\n          mstore\n          0x20\n          add\n          0x4368616861740000000000000000000000000000000000000000000000000000\n          dup2\n          mstore\n          pop\n          dup2\n          mstore\n          pop\n            /* \"contracts/SimpleStorage.sol\":170:227  People public person = People({favNum: 2, name:'Chahat'}) */\n          0x02\n          0x00\n          dup3\n          add\n          mload\n          dup2\n          0x00\n          add\n          sstore\n          0x20\n          dup3\n          add\n          mload\n          dup2\n          0x01\n          add\n          swap1\n          dup1\n          mload\n          swap1\n          0x20\n          add\n          swap1\n          tag_1\n          swap3\n          swap2\n          swap1\n          tag_2\n          jump\t// in\n        tag_1:\n          pop\n          pop\n          pop\n            /* \"contracts/SimpleStorage.sol\":258:290  People({favNum: 3, name:'Prey'}) */\n          mload(0x40)\n          dup1\n          0x40\n          add\n          0x40\n          mstore\n          dup1\n            /* \"contracts/SimpleStorage.sol\":274:275  3 */\n          0x03\n            /* \"contracts/SimpleStorage.sol\":258:290  People({favNum: 3, name:'Prey'}) */\n          dup2\n          mstore\n          0x20\n          add\n          mload(0x40)\n          dup1\n          0x40\n          add\n          0x40\n          mstore\n          dup1\n          0x04\n          dup2\n          mstore\n          0x20\n          add\n          0x5072657900000000000000000000000000000000000000000000000000000000\n          dup2\n          mstore\n          pop\n          dup2\n          mstore\n          pop\n            /* \"contracts/SimpleStorage.sol\":234:290  People public person1 = People({favNum: 3, name:'Prey'}) */\n          0x04\n          0x00\n          dup3\n          add\n          mload\n          dup2\n          0x00\n          add\n          sstore\n          0x20\n          dup3\n          add\n          mload\n          dup2\n          0x01\n          add\n          swap1\n          dup1\n          mload\n          swap1\n          0x20\n          add\n          swap1\n          tag_3\n          swap3\n          swap2\n          swap1\n          tag_2\n          jump\t// in\n        tag_3:\n          pop\n          pop\n          pop\n            /* \"contracts/SimpleStorage.sol\":321:354  People({favNum: 4, name:'Shell'}) */\n          mload(0x40)\n          dup1\n          0x40\n          add\n          0x40\n          mstore\n          dup1\n            /* \"contracts/SimpleStorage.sol\":337:338  4 */\n          0x04\n            /* \"contracts/SimpleStorage.sol\":321:354  People({favNum: 4, name:'Shell'}) */\n          dup2\n          mstore\n          0x20\n          add\n          mload(0x40)\n          dup1\n          0x40\n          add\n          0x40\n          mstore\n          dup1\n          0x05\n          dup2\n          mstore\n          0x20\n          add\n          0x5368656c6c000000000000000000000000000000000000000000000000000000\n          dup2\n          mstore\n          pop\n          dup2\n          mstore\n          pop\n            /* \"contracts/SimpleStorage.sol\":297:354  People public person2 = People({favNum: 4, name:'Shell'}) */\n          0x06\n          0x00\n          dup3\n          add\n          mload\n          dup2\n          0x00\n          add\n          sstore\n          0x20\n          dup3\n          add\n          mload\n          dup2\n          0x01\n          add\n          swap1\n          dup1\n          mload\n          swap1\n          0x20\n          add\n          swap1\n          tag_4\n          swap3\n          swap2\n          swap1\n          tag_2\n          jump\t// in\n        tag_4:\n          pop\n          pop\n          pop\n            /* \"contracts/SimpleStorage.sol\":60:865  contract SimpleStorage {... */\n          callvalue\n          dup1\n          iszero\n          tag_5\n          jumpi\n          0x00\n          dup1\n          revert\n        tag_5:\n          pop\n          jump(tag_6)\n        tag_2:\n          dup3\n          dup1\n          sload\n          tag_7\n          swap1\n          tag_8\n          jump\t// in\n        tag_7:\n          swap1\n          0x00\n          mstore\n          keccak256(0x00, 0x20)\n          swap1\n          0x1f\n          add\n          0x20\n          swap1\n          div\n          dup2\n          add\n          swap3\n          dup3\n          tag_10\n          jumpi\n          0x00\n          dup6\n          sstore\n          jump(tag_9)\n        tag_10:\n          dup3\n          0x1f\n          lt\n          tag_11\n          jumpi\n          dup1\n          mload\n          not(0xff)\n          and\n          dup4\n          dup1\n          add\n          or\n          dup6\n          sstore\n          jump(tag_9)\n        tag_11:\n          dup3\n          dup1\n          add\n          0x01\n          add\n          dup6\n          sstore\n          dup3\n          iszero\n          tag_9\n          jumpi\n          swap2\n          dup3\n          add\n        tag_12:\n          dup3\n          dup2\n          gt\n          iszero\n          tag_13\n          jumpi\n          dup3\n          mload\n          dup3\n          sstore\n          swap2\n          0x20\n          add\n          swap2\n          swap1\n          0x01\n          add\n          swap1\n          jump(tag_12)\n        tag_13:\n        tag_9:\n          pop\n          swap1\n          pop\n          tag_14\n          swap2\n          swap1\n          tag_15\n          jump\t// in\n        tag_14:\n          pop\n          swap1\n          jump\t// out\n        tag_15:\n        tag_16:\n          dup1\n          dup3\n          gt\n          iszero\n          tag_17\n          jumpi\n          0x00\n          dup2\n          0x00\n          swap1\n          sstore\n          pop\n          0x01\n          add\n          jump(tag_16)\n        tag_17:\n          pop\n          swap1\n          jump\t// out\n            /* \"#utility.yul\":7:187   */\n        tag_18:\n            /* \"#utility.yul\":55:132   */\n          0x4e487b7100000000000000000000000000000000000000000000000000000000\n            /* \"#utility.yul\":52:53   */\n          0x00\n            /* \"#utility.yul\":45:133   */\n          mstore\n            /* \"#utility.yul\":152:156   */\n          0x22\n            /* \"#utility.yul\":149:150   */\n          0x04\n            /* \"#utility.yul\":142:157   */\n          mstore\n            /* \"#utility.yul\":176:180   */\n          0x24\n            /* \"#utility.yul\":173:174   */\n          0x00\n            /* \"#utility.yul\":166:181   */\n          revert\n            /* \"#utility.yul\":193:513   */\n        tag_8:\n            /* \"#utility.yul\":237:243   */\n          0x00\n            /* \"#utility.yul\":274:275   */\n          0x02\n            /* \"#utility.yul\":268:272   */\n          dup3\n            /* \"#utility.yul\":264:276   */\n          div\n            /* \"#utility.yul\":254:276   */\n          swap1\n          pop\n            /* \"#utility.yul\":321:322   */\n          0x01\n            /* \"#utility.yul\":315:319   */\n          dup3\n            /* \"#utility.yul\":311:323   */\n          and\n            /* \"#utility.yul\":342:360   */\n          dup1\n            /* \"#utility.yul\":332:413   */\n          tag_22\n          jumpi\n            /* \"#utility.yul\":398:402   */\n          0x7f\n            /* \"#utility.yul\":390:396   */\n          dup3\n            /* \"#utility.yul\":386:403   */\n          and\n            /* \"#utility.yul\":376:403   */\n          swap2\n          pop\n            /* \"#utility.yul\":332:413   */\n        tag_22:\n            /* \"#utility.yul\":460:462   */\n          0x20\n            /* \"#utility.yul\":452:458   */\n          dup3\n            /* \"#utility.yul\":449:463   */\n          lt\n            /* \"#utility.yul\":429:447   */\n          dup2\n            /* \"#utility.yul\":426:464   */\n          eq\n            /* \"#utility.yul\":423:507   */\n          iszero\n          tag_23\n          jumpi\n            /* \"#utility.yul\":479:497   */\n          tag_24\n          tag_18\n          jump\t// in\n        tag_24:\n            /* \"#utility.yul\":423:507   */\n        tag_23:\n            /* \"#utility.yul\":244:513   */\n          pop\n            /* \"#utility.yul\":193:513   */\n          swap2\n          swap1\n          pop\n          jump\t// out\n            /* \"contracts/SimpleStorage.sol\":60:865  contract SimpleStorage {... */\n        tag_6:\n          dataSize(sub_0)\n          dup1\n          dataOffset(sub_0)\n          0x00\n          codecopy\n          0x00\n          return\n        stop\n\n        sub_0: assembly {\n                /* \"contracts/SimpleStorage.sol\":60:865  contract SimpleStorage {... */\n              mstore(0x40, 0x80)\n              callvalue\n              dup1\n              iszero\n              tag_1\n              jumpi\n              0x00\n              dup1\n              revert\n            tag_1:\n              pop\n              jumpi(tag_2, lt(calldatasize, 0x04))\n              shr(0xe0, calldataload(0x00))\n              dup1\n              0x66993d66\n              gt\n              tag_12\n              jumpi\n              dup1\n              0x66993d66\n              eq\n              tag_7\n              jumpi\n              dup1\n              0x6f760f41\n              eq\n              tag_8\n              jumpi\n              dup1\n              0x77ec2b55\n              eq\n              tag_9\n              jumpi\n              dup1\n              0x9e7a13ad\n              eq\n              tag_10\n              jumpi\n              dup1\n              0xe12219bd\n              eq\n              tag_11\n              jumpi\n              jump(tag_2)\n            tag_12:\n              dup1\n              0x06c62c2c\n              eq\n              tag_3\n              jumpi\n              dup1\n              0x3c8df652\n              eq\n              tag_4\n              jumpi\n              dup1\n              0x46cb59c2\n              eq\n              tag_5\n              jumpi\n              dup1\n              0x6057361d\n              eq\n              tag_6\n              jumpi\n            tag_2:\n              0x00\n              dup1\n              revert\n                /* \"contracts/SimpleStorage.sol\":117:161  mapping (string => uint) public nameToFavNum */\n            tag_3:\n              tag_13\n              0x04\n              dup1\n              calldatasize\n              sub\n              dup2\n              add\n              swap1\n              tag_14\n              swap2\n              swap1\n              tag_15\n              jump\t// in\n            tag_14:\n              tag_16\n              jump\t// in\n            tag_13:\n              mload(0x40)\n              tag_17\n              swap2\n              swap1\n              tag_18\n              jump\t// in\n            tag_17:\n              mload(0x40)\n              dup1\n              swap2\n              sub\n              swap1\n              return\n                /* \"contracts/SimpleStorage.sol\":90:108  uint public favNum */\n            tag_4:\n              tag_19\n              tag_20\n              jump\t// in\n            tag_19:\n              mload(0x40)\n              tag_21\n              swap2\n              swap1\n              tag_18\n              jump\t// in\n            tag_21:\n              mload(0x40)\n              dup1\n              swap2\n              sub\n              swap1\n              return\n                /* \"contracts/SimpleStorage.sol\":234:290  People public person1 = People({favNum: 3, name:'Prey'}) */\n            tag_5:\n              tag_22\n              tag_23\n              jump\t// in\n            tag_22:\n              mload(0x40)\n              tag_24\n              swap3\n              swap2\n              swap1\n              tag_25\n              jump\t// in\n            tag_24:\n              mload(0x40)\n              dup1\n              swap2\n              sub\n              swap1\n              return\n                /* \"contracts/SimpleStorage.sol\":499:608  function store(uint favoriteNum) public {... */\n            tag_6:\n              tag_26\n              0x04\n              dup1\n              calldatasize\n              sub\n              dup2\n              add\n              swap1\n              tag_27\n              swap2\n              swap1\n              tag_28\n              jump\t// in\n            tag_27:\n              tag_29\n              jump\t// in\n            tag_26:\n              stop\n                /* \"contracts/SimpleStorage.sol\":297:354  People public person2 = People({favNum: 4, name:'Shell'}) */\n            tag_7:\n              tag_30\n              tag_31\n              jump\t// in\n            tag_30:\n              mload(0x40)\n              tag_32\n              swap3\n              swap2\n              swap1\n              tag_25\n              jump\t// in\n            tag_32:\n              mload(0x40)\n              dup1\n              swap2\n              sub\n              swap1\n              return\n                /* \"contracts/SimpleStorage.sol\":616:862  function addPerson(string memory _name, uint _favNum) public {... */\n            tag_8:\n              tag_33\n              0x04\n              dup1\n              calldatasize\n              sub\n              dup2\n              add\n              swap1\n              tag_34\n              swap2\n              swap1\n              tag_35\n              jump\t// in\n            tag_34:\n              tag_36\n              jump\t// in\n            tag_33:\n              stop\n                /* \"contracts/SimpleStorage.sol\":170:227  People public person = People({favNum: 2, name:'Chahat'}) */\n            tag_9:\n              tag_37\n              tag_38\n              jump\t// in\n            tag_37:\n              mload(0x40)\n              tag_39\n              swap3\n              swap2\n              swap1\n              tag_25\n              jump\t// in\n            tag_39:\n              mload(0x40)\n              dup1\n              swap2\n              sub\n              swap1\n              return\n                /* \"contracts/SimpleStorage.sol\":468:490  People[] public people */\n            tag_10:\n              tag_40\n              0x04\n              dup1\n              calldatasize\n              sub\n              dup2\n              add\n              swap1\n              tag_41\n              swap2\n              swap1\n              tag_28\n              jump\t// in\n            tag_41:\n              tag_42\n              jump\t// in\n            tag_40:\n              mload(0x40)\n              tag_43\n              swap3\n              swap2\n              swap1\n              tag_25\n              jump\t// in\n            tag_43:\n              mload(0x40)\n              dup1\n              swap2\n              sub\n              swap1\n              return\n                /* \"contracts/SimpleStorage.sol\":437:461  uint[] public favNumList */\n            tag_11:\n              tag_44\n              0x04\n              dup1\n              calldatasize\n              sub\n              dup2\n              add\n              swap1\n              tag_45\n              swap2\n              swap1\n              tag_28\n              jump\t// in\n            tag_45:\n              tag_46\n              jump\t// in\n            tag_44:\n              mload(0x40)\n              tag_47\n              swap2\n              swap1\n              tag_18\n              jump\t// in\n            tag_47:\n              mload(0x40)\n              dup1\n              swap2\n              sub\n              swap1\n              return\n                /* \"contracts/SimpleStorage.sol\":117:161  mapping (string => uint) public nameToFavNum */\n            tag_16:\n              0x01\n              dup2\n              dup1\n              mload\n              0x20\n              dup2\n              add\n              dup3\n              add\n              dup1\n              mload\n              dup5\n              dup3\n              mstore\n              0x20\n              dup4\n              add\n              0x20\n              dup6\n              add\n              keccak256\n              dup2\n              dup4\n              mstore\n              dup1\n              swap6\n              pop\n              pop\n              pop\n              pop\n              pop\n              pop\n              0x00\n              swap2\n              pop\n              swap1\n              pop\n              sload\n              dup2\n              jump\t// out\n                /* \"contracts/SimpleStorage.sol\":90:108  uint public favNum */\n            tag_20:\n              sload(0x00)\n              dup2\n              jump\t// out\n                /* \"contracts/SimpleStorage.sol\":234:290  People public person1 = People({favNum: 3, name:'Prey'}) */\n            tag_23:\n              0x04\n              dup1\n              0x00\n              add\n              sload\n              swap1\n              dup1\n              0x01\n              add\n              dup1\n              sload\n              tag_48\n              swap1\n              tag_49\n              jump\t// in\n            tag_48:\n              dup1\n              0x1f\n              add\n              0x20\n              dup1\n              swap2\n              div\n              mul\n              0x20\n              add\n              mload(0x40)\n              swap1\n              dup2\n              add\n              0x40\n              mstore\n              dup1\n              swap3\n              swap2\n              swap1\n              dup2\n              dup2\n              mstore\n              0x20\n              add\n              dup3\n              dup1\n              sload\n              tag_50\n              swap1\n              tag_49\n              jump\t// in\n            tag_50:\n              dup1\n              iszero\n              tag_51\n              jumpi\n              dup1\n              0x1f\n              lt\n              tag_52\n              jumpi\n              0x0100\n              dup1\n              dup4\n              sload\n              div\n              mul\n              dup4\n              mstore\n              swap2\n              0x20\n              add\n              swap2\n              jump(tag_51)\n            tag_52:\n              dup3\n              add\n              swap2\n              swap1\n              0x00\n              mstore\n              keccak256(0x00, 0x20)\n              swap1\n            tag_53:\n              dup2\n              sload\n              dup2\n              mstore\n              swap1\n              0x01\n              add\n              swap1\n              0x20\n              add\n              dup1\n              dup4\n              gt\n              tag_53\n              jumpi\n              dup3\n              swap1\n              sub\n              0x1f\n              and\n              dup3\n              add\n              swap2\n            tag_51:\n              pop\n              pop\n              pop\n              pop\n              pop\n              swap1\n              pop\n              dup3\n              jump\t// out\n                /* \"contracts/SimpleStorage.sol\":499:608  function store(uint favoriteNum) public {... */\n            tag_29:\n                /* \"contracts/SimpleStorage.sol\":559:570  favoriteNum */\n              dup1\n                /* \"contracts/SimpleStorage.sol\":550:556  favNum */\n              0x00\n                /* \"contracts/SimpleStorage.sol\":550:570  favNum = favoriteNum */\n              dup2\n              swap1\n              sstore\n              pop\n                /* \"contracts/SimpleStorage.sol\":599:600  1 */\n              0x01\n                /* \"contracts/SimpleStorage.sol\":590:596  favNum */\n              sload(0x00)\n                /* \"contracts/SimpleStorage.sol\":590:600  favNum + 1 */\n              tag_55\n              swap2\n              swap1\n              tag_56\n              jump\t// in\n            tag_55:\n                /* \"contracts/SimpleStorage.sol\":581:587  favNum */\n              0x00\n                /* \"contracts/SimpleStorage.sol\":581:600  favNum = favNum + 1 */\n              dup2\n              swap1\n              sstore\n              pop\n                /* \"contracts/SimpleStorage.sol\":499:608  function store(uint favoriteNum) public {... */\n              pop\n              jump\t// out\n                /* \"contracts/SimpleStorage.sol\":297:354  People public person2 = People({favNum: 4, name:'Shell'}) */\n            tag_31:\n              0x06\n              dup1\n              0x00\n              add\n              sload\n              swap1\n              dup1\n              0x01\n              add\n              dup1\n              sload\n              tag_57\n              swap1\n              tag_49\n              jump\t// in\n            tag_57:\n              dup1\n              0x1f\n              add\n              0x20\n              dup1\n              swap2\n              div\n              mul\n              0x20\n              add\n              mload(0x40)\n              swap1\n              dup2\n              add\n              0x40\n              mstore\n              dup1\n              swap3\n              swap2\n              swap1\n              dup2\n              dup2\n              mstore\n              0x20\n              add\n              dup3\n              dup1\n              sload\n              tag_58\n              swap1\n              tag_49\n              jump\t// in\n            tag_58:\n              dup1\n              iszero\n              tag_59\n              jumpi\n              dup1\n              0x1f\n              lt\n              tag_60\n              jumpi\n              0x0100\n              dup1\n              dup4\n              sload\n              div\n              mul\n              dup4\n              mstore\n              swap2\n              0x20\n              add\n              swap2\n              jump(tag_59)\n            tag_60:\n              dup3\n              add\n              swap2\n              swap1\n              0x00\n              mstore\n              keccak256(0x00, 0x20)\n              swap1\n            tag_61:\n              dup2\n              sload\n              dup2\n              mstore\n              swap1\n              0x01\n              add\n              swap1\n              0x20\n              add\n              dup1\n              dup4\n              gt\n              tag_61\n              jumpi\n              dup3\n              swap1\n              sub\n              0x1f\n              and\n              dup3\n              add\n              swap2\n            tag_59:\n              pop\n              pop\n              pop\n              pop\n              pop\n              swap1\n              pop\n              dup3\n              jump\t// out\n                /* \"contracts/SimpleStorage.sol\":616:862  function addPerson(string memory _name, uint _favNum) public {... */\n            tag_36:\n                /* \"contracts/SimpleStorage.sol\":688:711  People memory newPerson */\n              0x00\n                /* \"contracts/SimpleStorage.sol\":714:736  People(_favNum, _name) */\n              mload(0x40)\n              dup1\n              0x40\n              add\n              0x40\n              mstore\n              dup1\n                /* \"contracts/SimpleStorage.sol\":721:728  _favNum */\n              dup4\n                /* \"contracts/SimpleStorage.sol\":714:736  People(_favNum, _name) */\n              dup2\n              mstore\n              0x20\n              add\n                /* \"contracts/SimpleStorage.sol\":730:735  _name */\n              dup5\n                /* \"contracts/SimpleStorage.sol\":714:736  People(_favNum, _name) */\n              dup2\n              mstore\n              pop\n                /* \"contracts/SimpleStorage.sol\":688:736  People memory newPerson = People(_favNum, _name) */\n              swap1\n              pop\n                /* \"contracts/SimpleStorage.sol\":747:753  people */\n              0x09\n                /* \"contracts/SimpleStorage.sol\":759:768  newPerson */\n              dup2\n                /* \"contracts/SimpleStorage.sol\":747:769  people.push(newPerson) */\n              swap1\n              dup1\n              0x01\n              dup2\n              sload\n              add\n              dup1\n              dup3\n              sstore\n              dup1\n              swap2\n              pop\n              pop\n              0x01\n              swap1\n              sub\n              swap1\n              0x00\n              mstore\n              keccak256(0x00, 0x20)\n              swap1\n              0x02\n              mul\n              add\n              0x00\n              swap1\n              swap2\n              swap1\n              swap2\n              swap1\n              swap2\n              pop\n              0x00\n              dup3\n              add\n              mload\n              dup2\n              0x00\n              add\n              sstore\n              0x20\n              dup3\n              add\n              mload\n              dup2\n              0x01\n              add\n              swap1\n              dup1\n              mload\n              swap1\n              0x20\n              add\n              swap1\n              tag_64\n              swap3\n              swap2\n              swap1\n              tag_65\n              jump\t// in\n            tag_64:\n              pop\n              pop\n              pop\n                /* \"contracts/SimpleStorage.sol\":780:786  people */\n              0x09\n                /* \"contracts/SimpleStorage.sol\":792:813  People(_favNum,_name) */\n              mload(0x40)\n              dup1\n              0x40\n              add\n              0x40\n              mstore\n              dup1\n                /* \"contracts/SimpleStorage.sol\":799:806  _favNum */\n              dup5\n                /* \"contracts/SimpleStorage.sol\":792:813  People(_favNum,_name) */\n              dup2\n              mstore\n              0x20\n              add\n                /* \"contracts/SimpleStorage.sol\":807:812  _name */\n              dup6\n                /* \"contracts/SimpleStorage.sol\":792:813  People(_favNum,_name) */\n              dup2\n              mstore\n              pop\n                /* \"contracts/SimpleStorage.sol\":780:814  people.push(People(_favNum,_name)) */\n              swap1\n              dup1\n              0x01\n              dup2\n              sload\n              add\n              dup1\n              dup3\n              sstore\n              dup1\n              swap2\n              pop\n              pop\n              0x01\n              swap1\n              sub\n              swap1\n              0x00\n              mstore\n              keccak256(0x00, 0x20)\n              swap1\n              0x02\n              mul\n              add\n              0x00\n              swap1\n              swap2\n              swap1\n              swap2\n              swap1\n              swap2\n              pop\n              0x00\n              dup3\n              add\n              mload\n              dup2\n              0x00\n              add\n              sstore\n              0x20\n              dup3\n              add\n              mload\n              dup2\n              0x01\n              add\n              swap1\n              dup1\n              mload\n              swap1\n              0x20\n              add\n              swap1\n              tag_67\n              swap3\n              swap2\n              swap1\n              tag_65\n              jump\t// in\n            tag_67:\n              pop\n              pop\n              pop\n                /* \"contracts/SimpleStorage.sol\":847:854  _favNum */\n              dup2\n                /* \"contracts/SimpleStorage.sol\":825:837  nameToFavNum */\n              0x01\n                /* \"contracts/SimpleStorage.sol\":838:843  _name */\n              dup5\n                /* \"contracts/SimpleStorage.sol\":825:844  nameToFavNum[_name] */\n              mload(0x40)\n              tag_68\n              swap2\n              swap1\n              tag_69\n              jump\t// in\n            tag_68:\n              swap1\n              dup2\n              mstore\n              0x20\n              add\n              mload(0x40)\n              dup1\n              swap2\n              sub\n              swap1\n              keccak256\n                /* \"contracts/SimpleStorage.sol\":825:854  nameToFavNum[_name] = _favNum */\n              dup2\n              swap1\n              sstore\n              pop\n                /* \"contracts/SimpleStorage.sol\":677:862  {... */\n              pop\n                /* \"contracts/SimpleStorage.sol\":616:862  function addPerson(string memory _name, uint _favNum) public {... */\n              pop\n              pop\n              jump\t// out\n                /* \"contracts/SimpleStorage.sol\":170:227  People public person = People({favNum: 2, name:'Chahat'}) */\n            tag_38:\n              0x02\n              dup1\n              0x00\n              add\n              sload\n              swap1\n              dup1\n              0x01\n              add\n              dup1\n              sload\n              tag_70\n              swap1\n              tag_49\n              jump\t// in\n            tag_70:\n              dup1\n              0x1f\n              add\n              0x20\n              dup1\n              swap2\n              div\n              mul\n              0x20\n              add\n              mload(0x40)\n              swap1\n              dup2\n              add\n              0x40\n              mstore\n              dup1\n              swap3\n              swap2\n              swap1\n              dup2\n              dup2\n              mstore\n              0x20\n              add\n              dup3\n              dup1\n              sload\n              tag_71\n              swap1\n              tag_49\n              jump\t// in\n            tag_71:\n              dup1\n              iszero\n              tag_72\n              jumpi\n              dup1\n              0x1f\n              lt\n              tag_73\n              jumpi\n              0x0100\n              dup1\n              dup4\n              sload\n              div\n              mul\n              dup4\n              mstore\n              swap2\n              0x20\n              add\n              swap2\n              jump(tag_72)\n            tag_73:\n              dup3\n              add\n              swap2\n              swap1\n              0x00\n              mstore\n              keccak256(0x00, 0x20)\n              swap1\n            tag_74:\n              dup2\n              sload\n              dup2\n              mstore\n              swap1\n              0x01\n              add\n              swap1\n              0x20\n              add\n              dup1\n              dup4\n              gt\n              tag_74\n              jumpi\n              dup3\n              swap1\n              sub\n              0x1f\n              and\n              dup3\n              add\n              swap2\n            tag_72:\n              pop\n              pop\n              pop\n              pop\n              pop\n              swap1\n              pop\n              dup3\n              jump\t// out\n                /* \"contracts/SimpleStorage.sol\":468:490  People[] public people */\n            tag_42:\n              0x09\n              dup2\n              dup2\n              sload\n              dup2\n              lt\n              tag_75\n              jumpi\n              0x00\n              dup1\n              revert\n            tag_75:\n              swap1\n              0x00\n              mstore\n              keccak256(0x00, 0x20)\n              swap1\n              0x02\n              mul\n              add\n              0x00\n              swap2\n              pop\n              swap1\n              pop\n              dup1\n              0x00\n              add\n              sload\n              swap1\n              dup1\n              0x01\n              add\n              dup1\n              sload\n              tag_77\n              swap1\n              tag_49\n              jump\t// in\n            tag_77:\n              dup1\n              0x1f\n              add\n              0x20\n              dup1\n              swap2\n              div\n              mul\n              0x20\n              add\n              mload(0x40)\n              swap1\n              dup2\n              add\n              0x40\n              mstore\n              dup1\n              swap3\n              swap2\n              swap1\n              dup2\n              dup2\n              mstore\n              0x20\n              add\n              dup3\n              dup1\n              sload\n              tag_78\n              swap1\n              tag_49\n              jump\t// in\n            tag_78:\n              dup1\n              iszero\n              tag_79\n              jumpi\n              dup1\n              0x1f\n              lt\n              tag_80\n              jumpi\n              0x0100\n              dup1\n              dup4\n              sload\n              div\n              mul\n              dup4\n              mstore\n              swap2\n              0x20\n              add\n              swap2\n              jump(tag_79)\n            tag_80:\n              dup3\n              add\n              swap2\n              swap1\n              0x00\n              mstore\n              keccak256(0x00, 0x20)\n              swap1\n            tag_81:\n              dup2\n              sload\n              dup2\n              mstore\n              swap1\n              0x01\n              add\n              swap1\n              0x20\n              add\n              dup1\n              dup4\n              gt\n              tag_81\n              jumpi\n              dup3\n              swap1\n              sub\n              0x1f\n              and\n              dup3\n              add\n              swap2\n            tag_79:\n              pop\n              pop\n              pop\n              pop\n              pop\n              swap1\n              pop\n              dup3\n              jump\t// out\n                /* \"contracts/SimpleStorage.sol\":437:461  uint[] public favNumList */\n            tag_46:\n              0x08\n              dup2\n              dup2\n              sload\n              dup2\n              lt\n              tag_82\n              jumpi\n              0x00\n              dup1\n              revert\n            tag_82:\n              swap1\n              0x00\n              mstore\n              keccak256(0x00, 0x20)\n              add\n              0x00\n              swap2\n              pop\n              swap1\n              pop\n              sload\n              dup2\n              jump\t// out\n            tag_65:\n              dup3\n              dup1\n              sload\n              tag_84\n              swap1\n              tag_49\n              jump\t// in\n            tag_84:\n              swap1\n              0x00\n              mstore\n              keccak256(0x00, 0x20)\n              swap1\n              0x1f\n              add\n              0x20\n              swap1\n              div\n              dup2\n              add\n              swap3\n              dup3\n              tag_86\n              jumpi\n              0x00\n              dup6\n              sstore\n              jump(tag_85)\n            tag_86:\n              dup3\n              0x1f\n              lt\n              tag_87\n              jumpi\n              dup1\n              mload\n              not(0xff)\n              and\n              dup4\n              dup1\n              add\n              or\n              dup6\n              sstore\n              jump(tag_85)\n            tag_87:\n              dup3\n              dup1\n              add\n              0x01\n              add\n              dup6\n              sstore\n              dup3\n              iszero\n              tag_85\n              jumpi\n              swap2\n              dup3\n              add\n            tag_88:\n              dup3\n              dup2\n              gt\n              iszero\n              tag_89\n              jumpi\n              dup3\n              mload\n              dup3\n              sstore\n              swap2\n              0x20\n              add\n              swap2\n              swap1\n              0x01\n              add\n              swap1\n              jump(tag_88)\n            tag_89:\n            tag_85:\n              pop\n              swap1\n              pop\n              tag_90\n              swap2\n              swap1\n              tag_91\n              jump\t// in\n            tag_90:\n              pop\n              swap1\n              jump\t// out\n            tag_91:\n            tag_92:\n              dup1\n              dup3\n              gt\n              iszero\n              tag_93\n              jumpi\n              0x00\n              dup2\n              0x00\n              swap1\n              sstore\n              pop\n              0x01\n              add\n              jump(tag_92)\n            tag_93:\n              pop\n              swap1\n              jump\t// out\n                /* \"#utility.yul\":7:82   */\n            tag_94:\n                /* \"#utility.yul\":40:46   */\n              0x00\n                /* \"#utility.yul\":73:75   */\n              0x40\n                /* \"#utility.yul\":67:76   */\n              mload\n                /* \"#utility.yul\":57:76   */\n              swap1\n              pop\n                /* \"#utility.yul\":7:82   */\n              swap1\n              jump\t// out\n                /* \"#utility.yul\":88:205   */\n            tag_95:\n                /* \"#utility.yul\":197:198   */\n              0x00\n                /* \"#utility.yul\":194:195   */\n              dup1\n                /* \"#utility.yul\":187:199   */\n              revert\n                /* \"#utility.yul\":211:328   */\n            tag_96:\n                /* \"#utility.yul\":320:321   */\n              0x00\n                /* \"#utility.yul\":317:318   */\n              dup1\n                /* \"#utility.yul\":310:322   */\n              revert\n                /* \"#utility.yul\":334:451   */\n            tag_97:\n                /* \"#utility.yul\":443:444   */\n              0x00\n                /* \"#utility.yul\":440:441   */\n              dup1\n                /* \"#utility.yul\":433:445   */\n              revert\n                /* \"#utility.yul\":457:574   */\n            tag_98:\n                /* \"#utility.yul\":566:567   */\n              0x00\n                /* \"#utility.yul\":563:564   */\n              dup1\n                /* \"#utility.yul\":556:568   */\n              revert\n                /* \"#utility.yul\":580:682   */\n            tag_99:\n                /* \"#utility.yul\":621:627   */\n              0x00\n                /* \"#utility.yul\":672:674   */\n              0x1f\n                /* \"#utility.yul\":668:675   */\n              not\n                /* \"#utility.yul\":663:665   */\n              0x1f\n                /* \"#utility.yul\":656:661   */\n              dup4\n                /* \"#utility.yul\":652:666   */\n              add\n                /* \"#utility.yul\":648:676   */\n              and\n                /* \"#utility.yul\":638:676   */\n              swap1\n              pop\n                /* \"#utility.yul\":580:682   */\n              swap2\n              swap1\n              pop\n              jump\t// out\n                /* \"#utility.yul\":688:868   */\n            tag_100:\n                /* \"#utility.yul\":736:813   */\n              0x4e487b7100000000000000000000000000000000000000000000000000000000\n                /* \"#utility.yul\":733:734   */\n              0x00\n                /* \"#utility.yul\":726:814   */\n              mstore\n                /* \"#utility.yul\":833:837   */\n              0x41\n                /* \"#utility.yul\":830:831   */\n              0x04\n                /* \"#utility.yul\":823:838   */\n              mstore\n                /* \"#utility.yul\":857:861   */\n              0x24\n                /* \"#utility.yul\":854:855   */\n              0x00\n                /* \"#utility.yul\":847:862   */\n              revert\n                /* \"#utility.yul\":874:1155   */\n            tag_101:\n                /* \"#utility.yul\":957:984   */\n              tag_128\n                /* \"#utility.yul\":979:983   */\n              dup3\n                /* \"#utility.yul\":957:984   */\n              tag_99\n              jump\t// in\n            tag_128:\n                /* \"#utility.yul\":949:955   */\n              dup2\n                /* \"#utility.yul\":945:985   */\n              add\n                /* \"#utility.yul\":1087:1093   */\n              dup2\n                /* \"#utility.yul\":1075:1085   */\n              dup2\n                /* \"#utility.yul\":1072:1094   */\n              lt\n                /* \"#utility.yul\":1051:1069   */\n              0xffffffffffffffff\n                /* \"#utility.yul\":1039:1049   */\n              dup3\n                /* \"#utility.yul\":1036:1070   */\n              gt\n                /* \"#utility.yul\":1033:1095   */\n              or\n                /* \"#utility.yul\":1030:1118   */\n              iszero\n              tag_129\n              jumpi\n                /* \"#utility.yul\":1098:1116   */\n              tag_130\n              tag_100\n              jump\t// in\n            tag_130:\n                /* \"#utility.yul\":1030:1118   */\n            tag_129:\n                /* \"#utility.yul\":1138:1148   */\n              dup1\n                /* \"#utility.yul\":1134:1136   */\n              0x40\n                /* \"#utility.yul\":1127:1149   */\n              mstore\n                /* \"#utility.yul\":917:1155   */\n              pop\n                /* \"#utility.yul\":874:1155   */\n              pop\n              pop\n              jump\t// out\n                /* \"#utility.yul\":1161:1290   */\n            tag_102:\n                /* \"#utility.yul\":1195:1201   */\n              0x00\n                /* \"#utility.yul\":1222:1242   */\n              tag_132\n              tag_94\n              jump\t// in\n            tag_132:\n                /* \"#utility.yul\":1212:1242   */\n              swap1\n              pop\n                /* \"#utility.yul\":1251:1284   */\n              tag_133\n                /* \"#utility.yul\":1279:1283   */\n              dup3\n                /* \"#utility.yul\":1271:1277   */\n              dup3\n                /* \"#utility.yul\":1251:1284   */\n              tag_101\n              jump\t// in\n            tag_133:\n                /* \"#utility.yul\":1161:1290   */\n              swap2\n              swap1\n              pop\n              jump\t// out\n                /* \"#utility.yul\":1296:1604   */\n            tag_103:\n                /* \"#utility.yul\":1358:1362   */\n              0x00\n                /* \"#utility.yul\":1448:1466   */\n              0xffffffffffffffff\n                /* \"#utility.yul\":1440:1446   */\n              dup3\n                /* \"#utility.yul\":1437:1467   */\n              gt\n                /* \"#utility.yul\":1434:1490   */\n              iszero\n              tag_135\n              jumpi\n                /* \"#utility.yul\":1470:1488   */\n              tag_136\n              tag_100\n              jump\t// in\n            tag_136:\n                /* \"#utility.yul\":1434:1490   */\n            tag_135:\n                /* \"#utility.yul\":1508:1537   */\n              tag_137\n                /* \"#utility.yul\":1530:1536   */\n              dup3\n                /* \"#utility.yul\":1508:1537   */\n              tag_99\n              jump\t// in\n            tag_137:\n                /* \"#utility.yul\":1500:1537   */\n              swap1\n              pop\n                /* \"#utility.yul\":1592:1596   */\n              0x20\n                /* \"#utility.yul\":1586:1590   */\n              dup2\n                /* \"#utility.yul\":1582:1597   */\n              add\n                /* \"#utility.yul\":1574:1597   */\n              swap1\n              pop\n                /* \"#utility.yul\":1296:1604   */\n              swap2\n              swap1\n              pop\n              jump\t// out\n                /* \"#utility.yul\":1610:1764   */\n            tag_104:\n                /* \"#utility.yul\":1694:1700   */\n              dup3\n                /* \"#utility.yul\":1689:1692   */\n              dup2\n                /* \"#utility.yul\":1684:1687   */\n              dup4\n                /* \"#utility.yul\":1671:1701   */\n              calldatacopy\n                /* \"#utility.yul\":1756:1757   */\n              0x00\n                /* \"#utility.yul\":1747:1753   */\n              dup4\n                /* \"#utility.yul\":1742:1745   */\n              dup4\n                /* \"#utility.yul\":1738:1754   */\n              add\n                /* \"#utility.yul\":1731:1758   */\n              mstore\n                /* \"#utility.yul\":1610:1764   */\n              pop\n              pop\n              pop\n              jump\t// out\n                /* \"#utility.yul\":1770:2182   */\n            tag_105:\n                /* \"#utility.yul\":1848:1853   */\n              0x00\n                /* \"#utility.yul\":1873:1939   */\n              tag_140\n                /* \"#utility.yul\":1889:1938   */\n              tag_141\n                /* \"#utility.yul\":1931:1937   */\n              dup5\n                /* \"#utility.yul\":1889:1938   */\n              tag_103\n              jump\t// in\n            tag_141:\n                /* \"#utility.yul\":1873:1939   */\n              tag_102\n              jump\t// in\n            tag_140:\n                /* \"#utility.yul\":1864:1939   */\n              swap1\n              pop\n                /* \"#utility.yul\":1962:1968   */\n              dup3\n                /* \"#utility.yul\":1955:1960   */\n              dup2\n                /* \"#utility.yul\":1948:1969   */\n              mstore\n                /* \"#utility.yul\":2000:2004   */\n              0x20\n                /* \"#utility.yul\":1993:1998   */\n              dup2\n                /* \"#utility.yul\":1989:2005   */\n              add\n                /* \"#utility.yul\":2038:2041   */\n              dup5\n                /* \"#utility.yul\":2029:2035   */\n              dup5\n                /* \"#utility.yul\":2024:2027   */\n              dup5\n                /* \"#utility.yul\":2020:2036   */\n              add\n                /* \"#utility.yul\":2017:2042   */\n              gt\n                /* \"#utility.yul\":2014:2126   */\n              iszero\n              tag_142\n              jumpi\n                /* \"#utility.yul\":2045:2124   */\n              tag_143\n              tag_98\n              jump\t// in\n            tag_143:\n                /* \"#utility.yul\":2014:2126   */\n            tag_142:\n                /* \"#utility.yul\":2135:2176   */\n              tag_144\n                /* \"#utility.yul\":2169:2175   */\n              dup5\n                /* \"#utility.yul\":2164:2167   */\n              dup3\n                /* \"#utility.yul\":2159:2162   */\n              dup6\n                /* \"#utility.yul\":2135:2176   */\n              tag_104\n              jump\t// in\n            tag_144:\n                /* \"#utility.yul\":1854:2182   */\n              pop\n                /* \"#utility.yul\":1770:2182   */\n              swap4\n              swap3\n              pop\n              pop\n              pop\n              jump\t// out\n                /* \"#utility.yul\":2202:2542   */\n            tag_106:\n                /* \"#utility.yul\":2258:2263   */\n              0x00\n                /* \"#utility.yul\":2307:2310   */\n              dup3\n                /* \"#utility.yul\":2300:2304   */\n              0x1f\n                /* \"#utility.yul\":2292:2298   */\n              dup4\n                /* \"#utility.yul\":2288:2305   */\n              add\n                /* \"#utility.yul\":2284:2311   */\n              slt\n                /* \"#utility.yul\":2274:2396   */\n              tag_146\n              jumpi\n                /* \"#utility.yul\":2315:2394   */\n              tag_147\n              tag_97\n              jump\t// in\n            tag_147:\n                /* \"#utility.yul\":2274:2396   */\n            tag_146:\n                /* \"#utility.yul\":2432:2438   */\n              dup2\n                /* \"#utility.yul\":2419:2439   */\n              calldataload\n                /* \"#utility.yul\":2457:2536   */\n              tag_148\n                /* \"#utility.yul\":2532:2535   */\n              dup5\n                /* \"#utility.yul\":2524:2530   */\n              dup3\n                /* \"#utility.yul\":2517:2521   */\n              0x20\n                /* \"#utility.yul\":2509:2515   */\n              dup7\n                /* \"#utility.yul\":2505:2522   */\n              add\n                /* \"#utility.yul\":2457:2536   */\n              tag_105\n              jump\t// in\n            tag_148:\n                /* \"#utility.yul\":2448:2536   */\n              swap2\n              pop\n                /* \"#utility.yul\":2264:2542   */\n              pop\n                /* \"#utility.yul\":2202:2542   */\n              swap3\n              swap2\n              pop\n              pop\n              jump\t// out\n                /* \"#utility.yul\":2548:3057   */\n            tag_15:\n                /* \"#utility.yul\":2617:2623   */\n              0x00\n                /* \"#utility.yul\":2666:2668   */\n              0x20\n                /* \"#utility.yul\":2654:2663   */\n              dup3\n                /* \"#utility.yul\":2645:2652   */\n              dup5\n                /* \"#utility.yul\":2641:2664   */\n              sub\n                /* \"#utility.yul\":2637:2669   */\n              slt\n                /* \"#utility.yul\":2634:2753   */\n              iszero\n              tag_150\n              jumpi\n                /* \"#utility.yul\":2672:2751   */\n              tag_151\n              tag_95\n              jump\t// in\n            tag_151:\n                /* \"#utility.yul\":2634:2753   */\n            tag_150:\n                /* \"#utility.yul\":2820:2821   */\n              0x00\n                /* \"#utility.yul\":2809:2818   */\n              dup3\n                /* \"#utility.yul\":2805:2822   */\n              add\n                /* \"#utility.yul\":2792:2823   */\n              calldataload\n                /* \"#utility.yul\":2850:2868   */\n              0xffffffffffffffff\n                /* \"#utility.yul\":2842:2848   */\n              dup2\n                /* \"#utility.yul\":2839:2869   */\n              gt\n                /* \"#utility.yul\":2836:2953   */\n              iszero\n              tag_152\n              jumpi\n                /* \"#utility.yul\":2872:2951   */\n              tag_153\n              tag_96\n              jump\t// in\n            tag_153:\n                /* \"#utility.yul\":2836:2953   */\n            tag_152:\n                /* \"#utility.yul\":2977:3040   */\n              tag_154\n                /* \"#utility.yul\":3032:3039   */\n              dup5\n                /* \"#utility.yul\":3023:3029   */\n              dup3\n                /* \"#utility.yul\":3012:3021   */\n              dup6\n                /* \"#utility.yul\":3008:3030   */\n              add\n                /* \"#utility.yul\":2977:3040   */\n              tag_106\n              jump\t// in\n            tag_154:\n                /* \"#utility.yul\":2967:3040   */\n              swap2\n              pop\n                /* \"#utility.yul\":2763:3050   */\n              pop\n                /* \"#utility.yul\":2548:3057   */\n              swap3\n              swap2\n              pop\n              pop\n              jump\t// out\n                /* \"#utility.yul\":3063:3140   */\n            tag_107:\n                /* \"#utility.yul\":3100:3107   */\n              0x00\n                /* \"#utility.yul\":3129:3134   */\n              dup2\n                /* \"#utility.yul\":3118:3134   */\n              swap1\n              pop\n                /* \"#utility.yul\":3063:3140   */\n              swap2\n              swap1\n              pop\n              jump\t// out\n                /* \"#utility.yul\":3146:3264   */\n            tag_108:\n                /* \"#utility.yul\":3233:3257   */\n              tag_157\n                /* \"#utility.yul\":3251:3256   */\n              dup2\n                /* \"#utility.yul\":3233:3257   */\n              tag_107\n              jump\t// in\n            tag_157:\n                /* \"#utility.yul\":3228:3231   */\n              dup3\n                /* \"#utility.yul\":3221:3258   */\n              mstore\n                /* \"#utility.yul\":3146:3264   */\n              pop\n              pop\n              jump\t// out\n                /* \"#utility.yul\":3270:3492   */\n            tag_18:\n                /* \"#utility.yul\":3363:3367   */\n              0x00\n                /* \"#utility.yul\":3401:3403   */\n              0x20\n                /* \"#utility.yul\":3390:3399   */\n              dup3\n                /* \"#utility.yul\":3386:3404   */\n              add\n                /* \"#utility.yul\":3378:3404   */\n              swap1\n              pop\n                /* \"#utility.yul\":3414:3485   */\n              tag_159\n                /* \"#utility.yul\":3482:3483   */\n              0x00\n                /* \"#utility.yul\":3471:3480   */\n              dup4\n                /* \"#utility.yul\":3467:3484   */\n              add\n                /* \"#utility.yul\":3458:3464   */\n              dup5\n                /* \"#utility.yul\":3414:3485   */\n              tag_108\n              jump\t// in\n            tag_159:\n                /* \"#utility.yul\":3270:3492   */\n              swap3\n              swap2\n              pop\n              pop\n              jump\t// out\n                /* \"#utility.yul\":3498:3597   */\n            tag_109:\n                /* \"#utility.yul\":3550:3556   */\n              0x00\n                /* \"#utility.yul\":3584:3589   */\n              dup2\n                /* \"#utility.yul\":3578:3590   */\n              mload\n                /* \"#utility.yul\":3568:3590   */\n              swap1\n              pop\n                /* \"#utility.yul\":3498:3597   */\n              swap2\n              swap1\n              pop\n              jump\t// out\n                /* \"#utility.yul\":3603:3772   */\n            tag_110:\n                /* \"#utility.yul\":3687:3698   */\n              0x00\n                /* \"#utility.yul\":3721:3727   */\n              dup3\n                /* \"#utility.yul\":3716:3719   */\n              dup3\n                /* \"#utility.yul\":3709:3728   */\n              mstore\n                /* \"#utility.yul\":3761:3765   */\n              0x20\n                /* \"#utility.yul\":3756:3759   */\n              dup3\n                /* \"#utility.yul\":3752:3766   */\n              add\n                /* \"#utility.yul\":3737:3766   */\n              swap1\n              pop\n                /* \"#utility.yul\":3603:3772   */\n              swap3\n              swap2\n              pop\n              pop\n              jump\t// out\n                /* \"#utility.yul\":3778:4085   */\n            tag_111:\n                /* \"#utility.yul\":3846:3847   */\n              0x00\n                /* \"#utility.yul\":3856:3969   */\n            tag_163:\n                /* \"#utility.yul\":3870:3876   */\n              dup4\n                /* \"#utility.yul\":3867:3868   */\n              dup2\n                /* \"#utility.yul\":3864:3877   */\n              lt\n                /* \"#utility.yul\":3856:3969   */\n              iszero\n              tag_165\n              jumpi\n                /* \"#utility.yul\":3955:3956   */\n              dup1\n                /* \"#utility.yul\":3950:3953   */\n              dup3\n                /* \"#utility.yul\":3946:3957   */\n              add\n                /* \"#utility.yul\":3940:3958   */\n              mload\n                /* \"#utility.yul\":3936:3937   */\n              dup2\n                /* \"#utility.yul\":3931:3934   */\n              dup5\n                /* \"#utility.yul\":3927:3938   */\n              add\n                /* \"#utility.yul\":3920:3959   */\n              mstore\n                /* \"#utility.yul\":3892:3894   */\n              0x20\n                /* \"#utility.yul\":3889:3890   */\n              dup2\n                /* \"#utility.yul\":3885:3895   */\n              add\n                /* \"#utility.yul\":3880:3895   */\n              swap1\n              pop\n                /* \"#utility.yul\":3856:3969   */\n              jump(tag_163)\n            tag_165:\n                /* \"#utility.yul\":3987:3993   */\n              dup4\n                /* \"#utility.yul\":3984:3985   */\n              dup2\n                /* \"#utility.yul\":3981:3994   */\n              gt\n                /* \"#utility.yul\":3978:4079   */\n              iszero\n              tag_166\n              jumpi\n                /* \"#utility.yul\":4067:4068   */\n              0x00\n                /* \"#utility.yul\":4058:4064   */\n              dup5\n                /* \"#utility.yul\":4053:4056   */\n              dup5\n                /* \"#utility.yul\":4049:4065   */\n              add\n                /* \"#utility.yul\":4042:4069   */\n              mstore\n                /* \"#utility.yul\":3978:4079   */\n            tag_166:\n                /* \"#utility.yul\":3827:4085   */\n              pop\n                /* \"#utility.yul\":3778:4085   */\n              pop\n              pop\n              pop\n              jump\t// out\n                /* \"#utility.yul\":4091:4455   */\n            tag_112:\n                /* \"#utility.yul\":4179:4182   */\n              0x00\n                /* \"#utility.yul\":4207:4246   */\n              tag_168\n                /* \"#utility.yul\":4240:4245   */\n              dup3\n                /* \"#utility.yul\":4207:4246   */\n              tag_109\n              jump\t// in\n            tag_168:\n                /* \"#utility.yul\":4262:4333   */\n              tag_169\n                /* \"#utility.yul\":4326:4332   */\n              dup2\n                /* \"#utility.yul\":4321:4324   */\n              dup6\n                /* \"#utility.yul\":4262:4333   */\n              tag_110\n              jump\t// in\n            tag_169:\n                /* \"#utility.yul\":4255:4333   */\n              swap4\n              pop\n                /* \"#utility.yul\":4342:4394   */\n              tag_170\n                /* \"#utility.yul\":4387:4393   */\n              dup2\n                /* \"#utility.yul\":4382:4385   */\n              dup6\n                /* \"#utility.yul\":4375:4379   */\n              0x20\n                /* \"#utility.yul\":4368:4373   */\n              dup7\n                /* \"#utility.yul\":4364:4380   */\n              add\n                /* \"#utility.yul\":4342:4394   */\n              tag_111\n              jump\t// in\n            tag_170:\n                /* \"#utility.yul\":4419:4448   */\n              tag_171\n                /* \"#utility.yul\":4441:4447   */\n              dup2\n                /* \"#utility.yul\":4419:4448   */\n              tag_99\n              jump\t// in\n            tag_171:\n                /* \"#utility.yul\":4414:4417   */\n              dup5\n                /* \"#utility.yul\":4410:4449   */\n              add\n                /* \"#utility.yul\":4403:4449   */\n              swap2\n              pop\n                /* \"#utility.yul\":4183:4455   */\n              pop\n                /* \"#utility.yul\":4091:4455   */\n              swap3\n              swap2\n              pop\n              pop\n              jump\t// out\n                /* \"#utility.yul\":4461:4884   */\n            tag_25:\n                /* \"#utility.yul\":4602:4606   */\n              0x00\n                /* \"#utility.yul\":4640:4642   */\n              0x40\n                /* \"#utility.yul\":4629:4638   */\n              dup3\n                /* \"#utility.yul\":4625:4643   */\n              add\n                /* \"#utility.yul\":4617:4643   */\n              swap1\n              pop\n                /* \"#utility.yul\":4653:4724   */\n              tag_173\n                /* \"#utility.yul\":4721:4722   */\n              0x00\n                /* \"#utility.yul\":4710:4719   */\n              dup4\n                /* \"#utility.yul\":4706:4723   */\n              add\n                /* \"#utility.yul\":4697:4703   */\n              dup6\n                /* \"#utility.yul\":4653:4724   */\n              tag_108\n              jump\t// in\n            tag_173:\n                /* \"#utility.yul\":4771:4780   */\n              dup2\n                /* \"#utility.yul\":4765:4769   */\n              dup2\n                /* \"#utility.yul\":4761:4781   */\n              sub\n                /* \"#utility.yul\":4756:4758   */\n              0x20\n                /* \"#utility.yul\":4745:4754   */\n              dup4\n                /* \"#utility.yul\":4741:4759   */\n              add\n                /* \"#utility.yul\":4734:4782   */\n              mstore\n                /* \"#utility.yul\":4799:4877   */\n              tag_174\n                /* \"#utility.yul\":4872:4876   */\n              dup2\n                /* \"#utility.yul\":4863:4869   */\n              dup5\n                /* \"#utility.yul\":4799:4877   */\n              tag_112\n              jump\t// in\n            tag_174:\n                /* \"#utility.yul\":4791:4877   */\n              swap1\n              pop\n                /* \"#utility.yul\":4461:4884   */\n              swap4\n              swap3\n              pop\n              pop\n              pop\n              jump\t// out\n                /* \"#utility.yul\":4890:5012   */\n            tag_113:\n                /* \"#utility.yul\":4963:4987   */\n              tag_176\n                /* \"#utility.yul\":4981:4986   */\n              dup2\n                /* \"#utility.yul\":4963:4987   */\n              tag_107\n              jump\t// in\n            tag_176:\n                /* \"#utility.yul\":4956:4961   */\n              dup2\n                /* \"#utility.yul\":4953:4988   */\n              eq\n                /* \"#utility.yul\":4943:5006   */\n              tag_177\n              jumpi\n                /* \"#utility.yul\":5002:5003   */\n              0x00\n                /* \"#utility.yul\":4999:5000   */\n              dup1\n                /* \"#utility.yul\":4992:5004   */\n              revert\n                /* \"#utility.yul\":4943:5006   */\n            tag_177:\n                /* \"#utility.yul\":4890:5012   */\n              pop\n              jump\t// out\n                /* \"#utility.yul\":5018:5157   */\n            tag_114:\n                /* \"#utility.yul\":5064:5069   */\n              0x00\n                /* \"#utility.yul\":5102:5108   */\n              dup2\n                /* \"#utility.yul\":5089:5109   */\n              calldataload\n                /* \"#utility.yul\":5080:5109   */\n              swap1\n              pop\n                /* \"#utility.yul\":5118:5151   */\n              tag_179\n                /* \"#utility.yul\":5145:5150   */\n              dup2\n                /* \"#utility.yul\":5118:5151   */\n              tag_113\n              jump\t// in\n            tag_179:\n                /* \"#utility.yul\":5018:5157   */\n              swap3\n              swap2\n              pop\n              pop\n              jump\t// out\n                /* \"#utility.yul\":5163:5492   */\n            tag_28:\n                /* \"#utility.yul\":5222:5228   */\n              0x00\n                /* \"#utility.yul\":5271:5273   */\n              0x20\n                /* \"#utility.yul\":5259:5268   */\n              dup3\n                /* \"#utility.yul\":5250:5257   */\n              dup5\n                /* \"#utility.yul\":5246:5269   */\n              sub\n                /* \"#utility.yul\":5242:5274   */\n              slt\n                /* \"#utility.yul\":5239:5358   */\n              iszero\n              tag_181\n              jumpi\n                /* \"#utility.yul\":5277:5356   */\n              tag_182\n              tag_95\n              jump\t// in\n            tag_182:\n                /* \"#utility.yul\":5239:5358   */\n            tag_181:\n                /* \"#utility.yul\":5397:5398   */\n              0x00\n                /* \"#utility.yul\":5422:5475   */\n              tag_183\n                /* \"#utility.yul\":5467:5474   */\n              dup5\n                /* \"#utility.yul\":5458:5464   */\n              dup3\n                /* \"#utility.yul\":5447:5456   */\n              dup6\n                /* \"#utility.yul\":5443:5465   */\n              add\n                /* \"#utility.yul\":5422:5475   */\n              tag_114\n              jump\t// in\n            tag_183:\n                /* \"#utility.yul\":5412:5475   */\n              swap2\n              pop\n                /* \"#utility.yul\":5368:5485   */\n              pop\n                /* \"#utility.yul\":5163:5492   */\n              swap3\n              swap2\n              pop\n              pop\n              jump\t// out\n                /* \"#utility.yul\":5498:6152   */\n            tag_35:\n                /* \"#utility.yul\":5576:5582   */\n              0x00\n                /* \"#utility.yul\":5584:5590   */\n              dup1\n                /* \"#utility.yul\":5633:5635   */\n              0x40\n                /* \"#utility.yul\":5621:5630   */\n              dup4\n                /* \"#utility.yul\":5612:5619   */\n              dup6\n                /* \"#utility.yul\":5608:5631   */\n              sub\n                /* \"#utility.yul\":5604:5636   */\n              slt\n                /* \"#utility.yul\":5601:5720   */\n              iszero\n              tag_185\n              jumpi\n                /* \"#utility.yul\":5639:5718   */\n              tag_186\n              tag_95\n              jump\t// in\n            tag_186:\n                /* \"#utility.yul\":5601:5720   */\n            tag_185:\n                /* \"#utility.yul\":5787:5788   */\n              0x00\n                /* \"#utility.yul\":5776:5785   */\n              dup4\n                /* \"#utility.yul\":5772:5789   */\n              add\n                /* \"#utility.yul\":5759:5790   */\n              calldataload\n                /* \"#utility.yul\":5817:5835   */\n              0xffffffffffffffff\n                /* \"#utility.yul\":5809:5815   */\n              dup2\n                /* \"#utility.yul\":5806:5836   */\n              gt\n                /* \"#utility.yul\":5803:5920   */\n              iszero\n              tag_187\n              jumpi\n                /* \"#utility.yul\":5839:5918   */\n              tag_188\n              tag_96\n              jump\t// in\n            tag_188:\n                /* \"#utility.yul\":5803:5920   */\n            tag_187:\n                /* \"#utility.yul\":5944:6007   */\n              tag_189\n                /* \"#utility.yul\":5999:6006   */\n              dup6\n                /* \"#utility.yul\":5990:5996   */\n              dup3\n                /* \"#utility.yul\":5979:5988   */\n              dup7\n                /* \"#utility.yul\":5975:5997   */\n              add\n                /* \"#utility.yul\":5944:6007   */\n              tag_106\n              jump\t// in\n            tag_189:\n                /* \"#utility.yul\":5934:6007   */\n              swap3\n              pop\n                /* \"#utility.yul\":5730:6017   */\n              pop\n                /* \"#utility.yul\":6056:6058   */\n              0x20\n                /* \"#utility.yul\":6082:6135   */\n              tag_190\n                /* \"#utility.yul\":6127:6134   */\n              dup6\n                /* \"#utility.yul\":6118:6124   */\n              dup3\n                /* \"#utility.yul\":6107:6116   */\n              dup7\n                /* \"#utility.yul\":6103:6125   */\n              add\n                /* \"#utility.yul\":6082:6135   */\n              tag_114\n              jump\t// in\n            tag_190:\n                /* \"#utility.yul\":6072:6135   */\n              swap2\n              pop\n                /* \"#utility.yul\":6027:6145   */\n              pop\n                /* \"#utility.yul\":5498:6152   */\n              swap3\n              pop\n              swap3\n              swap1\n              pop\n              jump\t// out\n                /* \"#utility.yul\":6158:6338   */\n            tag_115:\n                /* \"#utility.yul\":6206:6283   */\n              0x4e487b7100000000000000000000000000000000000000000000000000000000\n                /* \"#utility.yul\":6203:6204   */\n              0x00\n                /* \"#utility.yul\":6196:6284   */\n              mstore\n                /* \"#utility.yul\":6303:6307   */\n              0x22\n                /* \"#utility.yul\":6300:6301   */\n              0x04\n                /* \"#utility.yul\":6293:6308   */\n              mstore\n                /* \"#utility.yul\":6327:6331   */\n              0x24\n                /* \"#utility.yul\":6324:6325   */\n              0x00\n                /* \"#utility.yul\":6317:6332   */\n              revert\n                /* \"#utility.yul\":6344:6664   */\n            tag_49:\n                /* \"#utility.yul\":6388:6394   */\n              0x00\n                /* \"#utility.yul\":6425:6426   */\n              0x02\n                /* \"#utility.yul\":6419:6423   */\n              dup3\n                /* \"#utility.yul\":6415:6427   */\n              div\n                /* \"#utility.yul\":6405:6427   */\n              swap1\n              pop\n                /* \"#utility.yul\":6472:6473   */\n              0x01\n                /* \"#utility.yul\":6466:6470   */\n              dup3\n                /* \"#utility.yul\":6462:6474   */\n              and\n                /* \"#utility.yul\":6493:6511   */\n              dup1\n                /* \"#utility.yul\":6483:6564   */\n              tag_193\n              jumpi\n                /* \"#utility.yul\":6549:6553   */\n              0x7f\n                /* \"#utility.yul\":6541:6547   */\n              dup3\n                /* \"#utility.yul\":6537:6554   */\n              and\n                /* \"#utility.yul\":6527:6554   */\n              swap2\n              pop\n                /* \"#utility.yul\":6483:6564   */\n            tag_193:\n                /* \"#utility.yul\":6611:6613   */\n              0x20\n                /* \"#utility.yul\":6603:6609   */\n              dup3\n                /* \"#utility.yul\":6600:6614   */\n              lt\n                /* \"#utility.yul\":6580:6598   */\n              dup2\n                /* \"#utility.yul\":6577:6615   */\n              eq\n                /* \"#utility.yul\":6574:6658   */\n              iszero\n              tag_194\n              jumpi\n                /* \"#utility.yul\":6630:6648   */\n              tag_195\n              tag_115\n              jump\t// in\n            tag_195:\n                /* \"#utility.yul\":6574:6658   */\n            tag_194:\n                /* \"#utility.yul\":6395:6664   */\n              pop\n                /* \"#utility.yul\":6344:6664   */\n              swap2\n              swap1\n              pop\n              jump\t// out\n                /* \"#utility.yul\":6670:6850   */\n            tag_116:\n                /* \"#utility.yul\":6718:6795   */\n              0x4e487b7100000000000000000000000000000000000000000000000000000000\n                /* \"#utility.yul\":6715:6716   */\n              0x00\n                /* \"#utility.yul\":6708:6796   */\n              mstore\n                /* \"#utility.yul\":6815:6819   */\n              0x11\n                /* \"#utility.yul\":6812:6813   */\n              0x04\n                /* \"#utility.yul\":6805:6820   */\n              mstore\n                /* \"#utility.yul\":6839:6843   */\n              0x24\n                /* \"#utility.yul\":6836:6837   */\n              0x00\n                /* \"#utility.yul\":6829:6844   */\n              revert\n                /* \"#utility.yul\":6856:7161   */\n            tag_56:\n                /* \"#utility.yul\":6896:6899   */\n              0x00\n                /* \"#utility.yul\":6915:6935   */\n              tag_198\n                /* \"#utility.yul\":6933:6934   */\n              dup3\n                /* \"#utility.yul\":6915:6935   */\n              tag_107\n              jump\t// in\n            tag_198:\n                /* \"#utility.yul\":6910:6935   */\n              swap2\n              pop\n                /* \"#utility.yul\":6949:6969   */\n              tag_199\n                /* \"#utility.yul\":6967:6968   */\n              dup4\n                /* \"#utility.yul\":6949:6969   */\n              tag_107\n              jump\t// in\n            tag_199:\n                /* \"#utility.yul\":6944:6969   */\n              swap3\n              pop\n                /* \"#utility.yul\":7103:7104   */\n              dup3\n                /* \"#utility.yul\":7035:7101   */\n              0xffffffffffffffffffffffffffffffffffffffffffffffffffffffffffffffff\n                /* \"#utility.yul\":7031:7105   */\n              sub\n                /* \"#utility.yul\":7028:7029   */\n              dup3\n                /* \"#utility.yul\":7025:7106   */\n              gt\n                /* \"#utility.yul\":7022:7129   */\n              iszero\n              tag_200\n              jumpi\n                /* \"#utility.yul\":7109:7127   */\n              tag_201\n              tag_116\n              jump\t// in\n            tag_201:\n                /* \"#utility.yul\":7022:7129   */\n            tag_200:\n                /* \"#utility.yul\":7153:7154   */\n              dup3\n                /* \"#utility.yul\":7150:7151   */\n              dup3\n                /* \"#utility.yul\":7146:7155   */\n              add\n                /* \"#utility.yul\":7139:7155   */\n              swap1\n              pop\n                /* \"#utility.yul\":6856:7161   */\n              swap3\n              swap2\n              pop\n              pop\n              jump\t// out\n                /* \"#utility.yul\":7167:7315   */\n            tag_117:\n                /* \"#utility.yul\":7269:7280   */\n              0x00\n                /* \"#utility.yul\":7306:7309   */\n              dup2\n                /* \"#utility.yul\":7291:7309   */\n              swap1\n              pop\n                /* \"#utility.yul\":7167:7315   */\n              swap3\n              swap2\n              pop\n              pop\n              jump\t// out\n                /* \"#utility.yul\":7321:7698   */\n            tag_118:\n                /* \"#utility.yul\":7427:7430   */\n              0x00\n                /* \"#utility.yul\":7455:7494   */\n              tag_204\n                /* \"#utility.yul\":7488:7493   */\n              dup3\n                /* \"#utility.yul\":7455:7494   */\n              tag_109\n              jump\t// in\n            tag_204:\n                /* \"#utility.yul\":7510:7599   */\n              tag_205\n                /* \"#utility.yul\":7592:7598   */\n              dup2\n                /* \"#utility.yul\":7587:7590   */\n              dup6\n                /* \"#utility.yul\":7510:7599   */\n              tag_117\n              jump\t// in\n            tag_205:\n                /* \"#utility.yul\":7503:7599   */\n              swap4\n              pop\n                /* \"#utility.yul\":7608:7660   */\n              tag_206\n                /* \"#utility.yul\":7653:7659   */\n              dup2\n                /* \"#utility.yul\":7648:7651   */\n              dup6\n                /* \"#utility.yul\":7641:7645   */\n              0x20\n                /* \"#utility.yul\":7634:7639   */\n              dup7\n                /* \"#utility.yul\":7630:7646   */\n              add\n                /* \"#utility.yul\":7608:7660   */\n              tag_111\n              jump\t// in\n            tag_206:\n                /* \"#utility.yul\":7685:7691   */\n              dup1\n                /* \"#utility.yul\":7680:7683   */\n              dup5\n                /* \"#utility.yul\":7676:7692   */\n              add\n                /* \"#utility.yul\":7669:7692   */\n              swap2\n              pop\n                /* \"#utility.yul\":7431:7698   */\n              pop\n                /* \"#utility.yul\":7321:7698   */\n              swap3\n              swap2\n              pop\n              pop\n              jump\t// out\n                /* \"#utility.yul\":7704:7979   */\n            tag_69:\n                /* \"#utility.yul\":7836:7839   */\n              0x00\n                /* \"#utility.yul\":7858:7953   */\n              tag_208\n                /* \"#utility.yul\":7949:7952   */\n              dup3\n                /* \"#utility.yul\":7940:7946   */\n              dup5\n                /* \"#utility.yul\":7858:7953   */\n              tag_118\n              jump\t// in\n            tag_208:\n                /* \"#utility.yul\":7851:7953   */\n              swap2\n              pop\n                /* \"#utility.yul\":7970:7973   */\n              dup2\n                /* \"#utility.yul\":7963:7973   */\n              swap1\n              pop\n                /* \"#utility.yul\":7704:7979   */\n              swap3\n              swap2\n              pop\n              pop\n              jump\t// out\n\n            auxdata: 0xa26469706673582212206f7867b023534a3da630f96a467542c40f9e7f3c8971baf0cedfacfcdce7df2164736f6c63430008080033\n        }\n    }\n\n    auxdata: 0xa2646970667358221220b43778826e0f506010bd4b553a6cfbd19d032bc8a2812dfac1202f8b41546a2664736f6c63430008080033\n}\n",
				"bytecode": {
					"linkReferences": {},
					"object": "608060405234801561001057600080fd5b50610fa5806100206000396000f3fe608060405234801561001057600080fd5b50600436106100365760003560e01c8063540d719e1461003b5780636be0d6bf14610045575b600080fd5b610043610063565b005b61004d6100cd565b60405161005a919061017d565b60405180910390f35b60405161006f906100f1565b604051809103906000f08015801561008b573d6000803e3d6000fd5b506000806101000a81548173ffffffffffffffffffffffffffffffffffffffff021916908373ffffffffffffffffffffffffffffffffffffffff160217905550565b60008054906101000a900473ffffffffffffffffffffffffffffffffffffffff1681565b610dd78061019983390190565b600073ffffffffffffffffffffffffffffffffffffffff82169050919050565b6000819050919050565b600061014361013e610139846100fe565b61011e565b6100fe565b9050919050565b600061015582610128565b9050919050565b60006101678261014a565b9050919050565b6101778161015c565b82525050565b6000602082019050610192600083018461016e565b9291505056fe60806040526040518060400160405280600281526020016040518060400160405280600681526020017f436861686174000000000000000000000000000000000000000000000000000081525081525060026000820151816000015560208201518160010190805190602001906200007992919062000180565b5050506040518060400160405280600381526020016040518060400160405280600481526020017f50726579000000000000000000000000000000000000000000000000000000008152508152506004600082015181600001556020820151816001019080519060200190620000f192919062000180565b5050506040518060400160405280600481526020016040518060400160405280600581526020017f5368656c6c00000000000000000000000000000000000000000000000000000081525081525060066000820151816000015560208201518160010190805190602001906200016992919062000180565b5050503480156200017957600080fd5b5062000295565b8280546200018e906200025f565b90600052602060002090601f016020900481019282620001b25760008555620001fe565b82601f10620001cd57805160ff1916838001178555620001fe565b82800160010185558215620001fe579182015b82811115620001fd578251825591602001919060010190620001e0565b5b5090506200020d919062000211565b5090565b5b808211156200022c57600081600090555060010162000212565b5090565b7f4e487b7100000000000000000000000000000000000000000000000000000000600052602260045260246000fd5b600060028204905060018216806200027857607f821691505b602082108114156200028f576200028e62000230565b5b50919050565b610b3280620002a56000396000f3fe608060405234801561001057600080fd5b50600436106100935760003560e01c806366993d661161006657806366993d66146101215780636f760f411461014057806377ec2b551461015c5780639e7a13ad1461017b578063e12219bd146101ac57610093565b806306c62c2c146100985780633c8df652146100c857806346cb59c2146100e65780636057361d14610105575b600080fd5b6100b260048036038101906100ad91906107d9565b6101dc565b6040516100bf919061083b565b60405180910390f35b6100d061020a565b6040516100dd919061083b565b60405180910390f35b6100ee610210565b6040516100fc9291906108de565b60405180910390f35b61011f600480360381019061011a919061093a565b6102aa565b005b6101296102c9565b6040516101379291906108de565b60405180910390f35b61015a60048036038101906101559190610967565b610363565b005b610164610462565b6040516101729291906108de565b60405180910390f35b6101956004803603810190610190919061093a565b6104fc565b6040516101a39291906108de565b60405180910390f35b6101c660048036038101906101c1919061093a565b6105b8565b6040516101d3919061083b565b60405180910390f35b6001818051602081018201805184825260208301602085012081835280955050505050506000915090505481565b60005481565b6004806000015490806001018054610227906109f2565b80601f0160208091040260200160405190810160405280929190818152602001828054610253906109f2565b80156102a05780601f10610275576101008083540402835291602001916102a0565b820191906000526020600020905b81548152906001019060200180831161028357829003601f168201915b5050505050905082565b8060008190555060016000546102c09190610a53565b60008190555050565b60068060000154908060010180546102e0906109f2565b80601f016020809104026020016040519081016040528092919081815260200182805461030c906109f2565b80156103595780601f1061032e57610100808354040283529160200191610359565b820191906000526020600020905b81548152906001019060200180831161033c57829003601f168201915b5050505050905082565b6000604051806040016040528083815260200184815250905060098190806001815401808255809150506001900390600052602060002090600202016000909190919091506000820151816000015560208201518160010190805190602001906103ce9291906105dc565b505050600960405180604001604052808481526020018581525090806001815401808255809150506001900390600052602060002090600202016000909190919091506000820151816000015560208201518160010190805190602001906104379291906105dc565b5050508160018460405161044b9190610ae5565b908152602001604051809103902081905550505050565b6002806000015490806001018054610479906109f2565b80601f01602080910402602001604051908101604052809291908181526020018280546104a5906109f2565b80156104f25780601f106104c7576101008083540402835291602001916104f2565b820191906000526020600020905b8154815290600101906020018083116104d557829003601f168201915b5050505050905082565b6009818154811061050c57600080fd5b9060005260206000209060020201600091509050806000015490806001018054610535906109f2565b80601f0160208091040260200160405190810160405280929190818152602001828054610561906109f2565b80156105ae5780601f10610583576101008083540402835291602001916105ae565b820191906000526020600020905b81548152906001019060200180831161059157829003601f168201915b5050505050905082565b600881815481106105c857600080fd5b906000526020600020016000915090505481565b8280546105e8906109f2565b90600052602060002090601f01602090048101928261060a5760008555610651565b82601f1061062357805160ff1916838001178555610651565b82800160010185558215610651579182015b82811115610650578251825591602001919060010190610635565b5b50905061065e9190610662565b5090565b5b8082111561067b576000816000905550600101610663565b5090565b6000604051905090565b600080fd5b600080fd5b600080fd5b600080fd5b6000601f19601f8301169050919050565b7f4e487b7100000000000000000000000000000000000000000000000000000000600052604160045260246000fd5b6106e68261069d565b810181811067ffffffffffffffff82111715610705576107046106ae565b5b80604052505050565b600061071861067f565b905061072482826106dd565b919050565b600067ffffffffffffffff821115610744576107436106ae565b5b61074d8261069d565b9050602081019050919050565b82818337600083830152505050565b600061077c61077784610729565b61070e565b90508281526020810184848401111561079857610797610698565b5b6107a384828561075a565b509392505050565b600082601f8301126107c0576107bf610693565b5b81356107d0848260208601610769565b91505092915050565b6000602082840312156107ef576107ee610689565b5b600082013567ffffffffffffffff81111561080d5761080c61068e565b5b610819848285016107ab565b91505092915050565b6000819050919050565b61083581610822565b82525050565b6000602082019050610850600083018461082c565b92915050565b600081519050919050565b600082825260208201905092915050565b60005b83811015610890578082015181840152602081019050610875565b8381111561089f576000848401525b50505050565b60006108b082610856565b6108ba8185610861565b93506108ca818560208601610872565b6108d38161069d565b840191505092915050565b60006040820190506108f3600083018561082c565b818103602083015261090581846108a5565b90509392505050565b61091781610822565b811461092257600080fd5b50565b6000813590506109348161090e565b92915050565b6000602082840312156109505761094f610689565b5b600061095e84828501610925565b91505092915050565b6000806040838503121561097e5761097d610689565b5b600083013567ffffffffffffffff81111561099c5761099b61068e565b5b6109a8858286016107ab565b92505060206109b985828601610925565b9150509250929050565b7f4e487b7100000000000000000000000000000000000000000000000000000000600052602260045260246000fd5b60006002820490506001821680610a0a57607f821691505b60208210811415610a1e57610a1d6109c3565b5b50919050565b7f4e487b7100000000000000000000000000000000000000000000000000000000600052601160045260246000fd5b6000610a5e82610822565b9150610a6983610822565b9250827fffffffffffffffffffffffffffffffffffffffffffffffffffffffffffffffff03821115610a9e57610a9d610a24565b5b828201905092915050565b600081905092915050565b6000610abf82610856565b610ac98185610aa9565b9350610ad9818560208601610872565b80840191505092915050565b6000610af18284610ab4565b91508190509291505056fea26469706673582212206f7867b023534a3da630f96a467542c40f9e7f3c8971baf0cedfacfcdce7df2164736f6c63430008080033a2646970667358221220b43778826e0f506010bd4b553a6cfbd19d032bc8a2812dfac1202f8b41546a2664736f6c63430008080033",
					"opcodes": "PUSH1 0x80 PUSH1 0x40 MSTORE CALLVALUE DUP1 ISZERO PUSH2 0x10 JUMPI PUSH1 0x0 DUP1 REVERT JUMPDEST POP PUSH2 0xFA5 DUP1 PUSH2 0x20 PUSH1 0x0 CODECOPY PUSH1 0x0 RETURN INVALID PUSH1 0x80 PUSH1 0x40 MSTORE CALLVALUE DUP1 ISZERO PUSH2 0x10 JUMPI PUSH1 0x0 DUP1 REVERT JUMPDEST POP PUSH1 0x4 CALLDATASIZE LT PUSH2 0x36 JUMPI PUSH1 0x0 CALLDATALOAD PUSH1 0xE0 SHR DUP1 PUSH4 0x540D719E EQ PUSH2 0x3B JUMPI DUP1 PUSH4 0x6BE0D6BF EQ PUSH2 0x45 JUMPI JUMPDEST PUSH1 0x0 DUP1 REVERT JUMPDEST PUSH2 0x43 PUSH2 0x63 JUMP JUMPDEST STOP JUMPDEST PUSH2 0x4D PUSH2 0xCD JUMP JUMPDEST PUSH1 0x40 MLOAD PUSH2 0x5A SWAP2 SWAP1 PUSH2 0x17D JUMP JUMPDEST PUSH1 0x40 MLOAD DUP1 SWAP2 SUB SWAP1 RETURN JUMPDEST PUSH1 0x40 MLOAD PUSH2 0x6F SWAP1 PUSH2 0xF1 JUMP JUMPDEST PUSH1 0x40 MLOAD DUP1 SWAP2 SUB SWAP1 PUSH1 0x0 CREATE DUP1 ISZERO DUP1 ISZERO PUSH2 0x8B JUMPI RETURNDATASIZE PUSH1 0x0 DUP1 RETURNDATACOPY RETURNDATASIZE PUSH1 0x0 REVERT JUMPDEST POP PUSH1 0x0 DUP1 PUSH2 0x100 EXP DUP2 SLOAD DUP2 PUSH20 0xFFFFFFFFFFFFFFFFFFFFFFFFFFFFFFFFFFFFFFFF MUL NOT AND SWAP1 DUP4 PUSH20 0xFFFFFFFFFFFFFFFFFFFFFFFFFFFFFFFFFFFFFFFF AND MUL OR SWAP1 SSTORE POP JUMP JUMPDEST PUSH1 0x0 DUP1 SLOAD SWAP1 PUSH2 0x100 EXP SWAP1 DIV PUSH20 0xFFFFFFFFFFFFFFFFFFFFFFFFFFFFFFFFFFFFFFFF AND DUP2 JUMP JUMPDEST PUSH2 0xDD7 DUP1 PUSH2 0x199 DUP4 CODECOPY ADD SWAP1 JUMP JUMPDEST PUSH1 0x0 PUSH20 0xFFFFFFFFFFFFFFFFFFFFFFFFFFFFFFFFFFFFFFFF DUP3 AND SWAP1 POP SWAP2 SWAP1 POP JUMP JUMPDEST PUSH1 0x0 DUP2 SWAP1 POP SWAP2 SWAP1 POP JUMP JUMPDEST PUSH1 0x0 PUSH2 0x143 PUSH2 0x13E PUSH2 0x139 DUP5 PUSH2 0xFE JUMP JUMPDEST PUSH2 0x11E JUMP JUMPDEST PUSH2 0xFE JUMP JUMPDEST SWAP1 POP SWAP2 SWAP1 POP JUMP JUMPDEST PUSH1 0x0 PUSH2 0x155 DUP3 PUSH2 0x128 JUMP JUMPDEST SWAP1 POP SWAP2 SWAP1 POP JUMP JUMPDEST PUSH1 0x0 PUSH2 0x167 DUP3 PUSH2 0x14A JUMP JUMPDEST SWAP1 POP SWAP2 SWAP1 POP JUMP JUMPDEST PUSH2 0x177 DUP2 PUSH2 0x15C JUMP JUMPDEST DUP3 MSTORE POP POP JUMP JUMPDEST PUSH1 0x0 PUSH1 0x20 DUP3 ADD SWAP1 POP PUSH2 0x192 PUSH1 0x0 DUP4 ADD DUP5 PUSH2 0x16E JUMP JUMPDEST SWAP3 SWAP2 POP POP JUMP INVALID PUSH1 0x80 PUSH1 0x40 MSTORE PUSH1 0x40 MLOAD DUP1 PUSH1 0x40 ADD PUSH1 0x40 MSTORE DUP1 PUSH1 0x2 DUP2 MSTORE PUSH1 0x20 ADD PUSH1 0x40 MLOAD DUP1 PUSH1 0x40 ADD PUSH1 0x40 MSTORE DUP1 PUSH1 0x6 DUP2 MSTORE PUSH1 0x20 ADD PUSH32 0x4368616861740000000000000000000000000000000000000000000000000000 DUP2 MSTORE POP DUP2 MSTORE POP PUSH1 0x2 PUSH1 0x0 DUP3 ADD MLOAD DUP2 PUSH1 0x0 ADD SSTORE PUSH1 0x20 DUP3 ADD MLOAD DUP2 PUSH1 0x1 ADD SWAP1 DUP1 MLOAD SWAP1 PUSH1 0x20 ADD SWAP1 PUSH3 0x79 SWAP3 SWAP2 SWAP1 PUSH3 0x180 JUMP JUMPDEST POP POP POP PUSH1 0x40 MLOAD DUP1 PUSH1 0x40 ADD PUSH1 0x40 MSTORE DUP1 PUSH1 0x3 DUP2 MSTORE PUSH1 0x20 ADD PUSH1 0x40 MLOAD DUP1 PUSH1 0x40 ADD PUSH1 0x40 MSTORE DUP1 PUSH1 0x4 DUP2 MSTORE PUSH1 0x20 ADD PUSH32 0x5072657900000000000000000000000000000000000000000000000000000000 DUP2 MSTORE POP DUP2 MSTORE POP PUSH1 0x4 PUSH1 0x0 DUP3 ADD MLOAD DUP2 PUSH1 0x0 ADD SSTORE PUSH1 0x20 DUP3 ADD MLOAD DUP2 PUSH1 0x1 ADD SWAP1 DUP1 MLOAD SWAP1 PUSH1 0x20 ADD SWAP1 PUSH3 0xF1 SWAP3 SWAP2 SWAP1 PUSH3 0x180 JUMP JUMPDEST POP POP POP PUSH1 0x40 MLOAD DUP1 PUSH1 0x40 ADD PUSH1 0x40 MSTORE DUP1 PUSH1 0x4 DUP2 MSTORE PUSH1 0x20 ADD PUSH1 0x40 MLOAD DUP1 PUSH1 0x40 ADD PUSH1 0x40 MSTORE DUP1 PUSH1 0x5 DUP2 MSTORE PUSH1 0x20 ADD PUSH32 0x5368656C6C000000000000000000000000000000000000000000000000000000 DUP2 MSTORE POP DUP2 MSTORE POP PUSH1 0x6 PUSH1 0x0 DUP3 ADD MLOAD DUP2 PUSH1 0x0 ADD SSTORE PUSH1 0x20 DUP3 ADD MLOAD DUP2 PUSH1 0x1 ADD SWAP1 DUP1 MLOAD SWAP1 PUSH1 0x20 ADD SWAP1 PUSH3 0x169 SWAP3 SWAP2 SWAP1 PUSH3 0x180 JUMP JUMPDEST POP POP POP CALLVALUE DUP1 ISZERO PUSH3 0x179 JUMPI PUSH1 0x0 DUP1 REVERT JUMPDEST POP PUSH3 0x295 JUMP JUMPDEST DUP3 DUP1 SLOAD PUSH3 0x18E SWAP1 PUSH3 0x25F JUMP JUMPDEST SWAP1 PUSH1 0x0 MSTORE PUSH1 0x20 PUSH1 0x0 KECCAK256 SWAP1 PUSH1 0x1F ADD PUSH1 0x20 SWAP1 DIV DUP2 ADD SWAP3 DUP3 PUSH3 0x1B2 JUMPI PUSH1 0x0 DUP6 SSTORE PUSH3 0x1FE JUMP JUMPDEST DUP3 PUSH1 0x1F LT PUSH3 0x1CD JUMPI DUP1 MLOAD PUSH1 0xFF NOT AND DUP4 DUP1 ADD OR DUP6 SSTORE PUSH3 0x1FE JUMP JUMPDEST DUP3 DUP1 ADD PUSH1 0x1 ADD DUP6 SSTORE DUP3 ISZERO PUSH3 0x1FE JUMPI SWAP2 DUP3 ADD JUMPDEST DUP3 DUP2 GT ISZERO PUSH3 0x1FD JUMPI DUP3 MLOAD DUP3 SSTORE SWAP2 PUSH1 0x20 ADD SWAP2 SWAP1 PUSH1 0x1 ADD SWAP1 PUSH3 0x1E0 JUMP JUMPDEST JUMPDEST POP SWAP1 POP PUSH3 0x20D SWAP2 SWAP1 PUSH3 0x211 JUMP JUMPDEST POP SWAP1 JUMP JUMPDEST JUMPDEST DUP1 DUP3 GT ISZERO PUSH3 0x22C JUMPI PUSH1 0x0 DUP2 PUSH1 0x0 SWAP1 SSTORE POP PUSH1 0x1 ADD PUSH3 0x212 JUMP JUMPDEST POP SWAP1 JUMP JUMPDEST PUSH32 0x4E487B7100000000000000000000000000000000000000000000000000000000 PUSH1 0x0 MSTORE PUSH1 0x22 PUSH1 0x4 MSTORE PUSH1 0x24 PUSH1 0x0 REVERT JUMPDEST PUSH1 0x0 PUSH1 0x2 DUP3 DIV SWAP1 POP PUSH1 0x1 DUP3 AND DUP1 PUSH3 0x278 JUMPI PUSH1 0x7F DUP3 AND SWAP2 POP JUMPDEST PUSH1 0x20 DUP3 LT DUP2 EQ ISZERO PUSH3 0x28F JUMPI PUSH3 0x28E PUSH3 0x230 JUMP JUMPDEST JUMPDEST POP SWAP2 SWAP1 POP JUMP JUMPDEST PUSH2 0xB32 DUP1 PUSH3 0x2A5 PUSH1 0x0 CODECOPY PUSH1 0x0 RETURN INVALID PUSH1 0x80 PUSH1 0x40 MSTORE CALLVALUE DUP1 ISZERO PUSH2 0x10 JUMPI PUSH1 0x0 DUP1 REVERT JUMPDEST POP PUSH1 0x4 CALLDATASIZE LT PUSH2 0x93 JUMPI PUSH1 0x0 CALLDATALOAD PUSH1 0xE0 SHR DUP1 PUSH4 0x66993D66 GT PUSH2 0x66 JUMPI DUP1 PUSH4 0x66993D66 EQ PUSH2 0x121 JUMPI DUP1 PUSH4 0x6F760F41 EQ PUSH2 0x140 JUMPI DUP1 PUSH4 0x77EC2B55 EQ PUSH2 0x15C JUMPI DUP1 PUSH4 0x9E7A13AD EQ PUSH2 0x17B JUMPI DUP1 PUSH4 0xE12219BD EQ PUSH2 0x1AC JUMPI PUSH2 0x93 JUMP JUMPDEST DUP1 PUSH4 0x6C62C2C EQ PUSH2 0x98 JUMPI DUP1 PUSH4 0x3C8DF652 EQ PUSH2 0xC8 JUMPI DUP1 PUSH4 0x46CB59C2 EQ PUSH2 0xE6 JUMPI DUP1 PUSH4 0x6057361D EQ PUSH2 0x105 JUMPI JUMPDEST PUSH1 0x0 DUP1 REVERT JUMPDEST PUSH2 0xB2 PUSH1 0x4 DUP1 CALLDATASIZE SUB DUP2 ADD SWAP1 PUSH2 0xAD SWAP2 SWAP1 PUSH2 0x7D9 JUMP JUMPDEST PUSH2 0x1DC JUMP JUMPDEST PUSH1 0x40 MLOAD PUSH2 0xBF SWAP2 SWAP1 PUSH2 0x83B JUMP JUMPDEST PUSH1 0x40 MLOAD DUP1 SWAP2 SUB SWAP1 RETURN JUMPDEST PUSH2 0xD0 PUSH2 0x20A JUMP JUMPDEST PUSH1 0x40 MLOAD PUSH2 0xDD SWAP2 SWAP1 PUSH2 0x83B JUMP JUMPDEST PUSH1 0x40 MLOAD DUP1 SWAP2 SUB SWAP1 RETURN JUMPDEST PUSH2 0xEE PUSH2 0x210 JUMP JUMPDEST PUSH1 0x40 MLOAD PUSH2 0xFC SWAP3 SWAP2 SWAP1 PUSH2 0x8DE JUMP JUMPDEST PUSH1 0x40 MLOAD DUP1 SWAP2 SUB SWAP1 RETURN JUMPDEST PUSH2 0x11F PUSH1 0x4 DUP1 CALLDATASIZE SUB DUP2 ADD SWAP1 PUSH2 0x11A SWAP2 SWAP1 PUSH2 0x93A JUMP JUMPDEST PUSH2 0x2AA JUMP JUMPDEST STOP JUMPDEST PUSH2 0x129 PUSH2 0x2C9 JUMP JUMPDEST PUSH1 0x40 MLOAD PUSH2 0x137 SWAP3 SWAP2 SWAP1 PUSH2 0x8DE JUMP JUMPDEST PUSH1 0x40 MLOAD DUP1 SWAP2 SUB SWAP1 RETURN JUMPDEST PUSH2 0x15A PUSH1 0x4 DUP1 CALLDATASIZE SUB DUP2 ADD SWAP1 PUSH2 0x155 SWAP2 SWAP1 PUSH2 0x967 JUMP JUMPDEST PUSH2 0x363 JUMP JUMPDEST STOP JUMPDEST PUSH2 0x164 PUSH2 0x462 JUMP JUMPDEST PUSH1 0x40 MLOAD PUSH2 0x172 SWAP3 SWAP2 SWAP1 PUSH2 0x8DE JUMP JUMPDEST PUSH1 0x40 MLOAD DUP1 SWAP2 SUB SWAP1 RETURN JUMPDEST PUSH2 0x195 PUSH1 0x4 DUP1 CALLDATASIZE SUB DUP2 ADD SWAP1 PUSH2 0x190 SWAP2 SWAP1 PUSH2 0x93A JUMP JUMPDEST PUSH2 0x4FC JUMP JUMPDEST PUSH1 0x40 MLOAD PUSH2 0x1A3 SWAP3 SWAP2 SWAP1 PUSH2 0x8DE JUMP JUMPDEST PUSH1 0x40 MLOAD DUP1 SWAP2 SUB SWAP1 RETURN JUMPDEST PUSH2 0x1C6 PUSH1 0x4 DUP1 CALLDATASIZE SUB DUP2 ADD SWAP1 PUSH2 0x1C1 SWAP2 SWAP1 PUSH2 0x93A JUMP JUMPDEST PUSH2 0x5B8 JUMP JUMPDEST PUSH1 0x40 MLOAD PUSH2 0x1D3 SWAP2 SWAP1 PUSH2 0x83B JUMP JUMPDEST PUSH1 0x40 MLOAD DUP1 SWAP2 SUB SWAP1 RETURN JUMPDEST PUSH1 0x1 DUP2 DUP1 MLOAD PUSH1 0x20 DUP2 ADD DUP3 ADD DUP1 MLOAD DUP5 DUP3 MSTORE PUSH1 0x20 DUP4 ADD PUSH1 0x20 DUP6 ADD KECCAK256 DUP2 DUP4 MSTORE DUP1 SWAP6 POP POP POP POP POP POP PUSH1 0x0 SWAP2 POP SWAP1 POP SLOAD DUP2 JUMP JUMPDEST PUSH1 0x0 SLOAD DUP2 JUMP JUMPDEST PUSH1 0x4 DUP1 PUSH1 0x0 ADD SLOAD SWAP1 DUP1 PUSH1 0x1 ADD DUP1 SLOAD PUSH2 0x227 SWAP1 PUSH2 0x9F2 JUMP JUMPDEST DUP1 PUSH1 0x1F ADD PUSH1 0x20 DUP1 SWAP2 DIV MUL PUSH1 0x20 ADD PUSH1 0x40 MLOAD SWAP1 DUP2 ADD PUSH1 0x40 MSTORE DUP1 SWAP3 SWAP2 SWAP1 DUP2 DUP2 MSTORE PUSH1 0x20 ADD DUP3 DUP1 SLOAD PUSH2 0x253 SWAP1 PUSH2 0x9F2 JUMP JUMPDEST DUP1 ISZERO PUSH2 0x2A0 JUMPI DUP1 PUSH1 0x1F LT PUSH2 0x275 JUMPI PUSH2 0x100 DUP1 DUP4 SLOAD DIV MUL DUP4 MSTORE SWAP2 PUSH1 0x20 ADD SWAP2 PUSH2 0x2A0 JUMP JUMPDEST DUP3 ADD SWAP2 SWAP1 PUSH1 0x0 MSTORE PUSH1 0x20 PUSH1 0x0 KECCAK256 SWAP1 JUMPDEST DUP2 SLOAD DUP2 MSTORE SWAP1 PUSH1 0x1 ADD SWAP1 PUSH1 0x20 ADD DUP1 DUP4 GT PUSH2 0x283 JUMPI DUP3 SWAP1 SUB PUSH1 0x1F AND DUP3 ADD SWAP2 JUMPDEST POP POP POP POP POP SWAP1 POP DUP3 JUMP JUMPDEST DUP1 PUSH1 0x0 DUP2 SWAP1 SSTORE POP PUSH1 0x1 PUSH1 0x0 SLOAD PUSH2 0x2C0 SWAP2 SWAP1 PUSH2 0xA53 JUMP JUMPDEST PUSH1 0x0 DUP2 SWAP1 SSTORE POP POP JUMP JUMPDEST PUSH1 0x6 DUP1 PUSH1 0x0 ADD SLOAD SWAP1 DUP1 PUSH1 0x1 ADD DUP1 SLOAD PUSH2 0x2E0 SWAP1 PUSH2 0x9F2 JUMP JUMPDEST DUP1 PUSH1 0x1F ADD PUSH1 0x20 DUP1 SWAP2 DIV MUL PUSH1 0x20 ADD PUSH1 0x40 MLOAD SWAP1 DUP2 ADD PUSH1 0x40 MSTORE DUP1 SWAP3 SWAP2 SWAP1 DUP2 DUP2 MSTORE PUSH1 0x20 ADD DUP3 DUP1 SLOAD PUSH2 0x30C SWAP1 PUSH2 0x9F2 JUMP JUMPDEST DUP1 ISZERO PUSH2 0x359 JUMPI DUP1 PUSH1 0x1F LT PUSH2 0x32E JUMPI PUSH2 0x100 DUP1 DUP4 SLOAD DIV MUL DUP4 MSTORE SWAP2 PUSH1 0x20 ADD SWAP2 PUSH2 0x359 JUMP JUMPDEST DUP3 ADD SWAP2 SWAP1 PUSH1 0x0 MSTORE PUSH1 0x20 PUSH1 0x0 KECCAK256 SWAP1 JUMPDEST DUP2 SLOAD DUP2 MSTORE SWAP1 PUSH1 0x1 ADD SWAP1 PUSH1 0x20 ADD DUP1 DUP4 GT PUSH2 0x33C JUMPI DUP3 SWAP1 SUB PUSH1 0x1F AND DUP3 ADD SWAP2 JUMPDEST POP POP POP POP POP SWAP1 POP DUP3 JUMP JUMPDEST PUSH1 0x0 PUSH1 0x40 MLOAD DUP1 PUSH1 0x40 ADD PUSH1 0x40 MSTORE DUP1 DUP4 DUP2 MSTORE PUSH1 0x20 ADD DUP5 DUP2 MSTORE POP SWAP1 POP PUSH1 0x9 DUP2 SWAP1 DUP1 PUSH1 0x1 DUP2 SLOAD ADD DUP1 DUP3 SSTORE DUP1 SWAP2 POP POP PUSH1 0x1 SWAP1 SUB SWAP1 PUSH1 0x0 MSTORE PUSH1 0x20 PUSH1 0x0 KECCAK256 SWAP1 PUSH1 0x2 MUL ADD PUSH1 0x0 SWAP1 SWAP2 SWAP1 SWAP2 SWAP1 SWAP2 POP PUSH1 0x0 DUP3 ADD MLOAD DUP2 PUSH1 0x0 ADD SSTORE PUSH1 0x20 DUP3 ADD MLOAD DUP2 PUSH1 0x1 ADD SWAP1 DUP1 MLOAD SWAP1 PUSH1 0x20 ADD SWAP1 PUSH2 0x3CE SWAP3 SWAP2 SWAP1 PUSH2 0x5DC JUMP JUMPDEST POP POP POP PUSH1 0x9 PUSH1 0x40 MLOAD DUP1 PUSH1 0x40 ADD PUSH1 0x40 MSTORE DUP1 DUP5 DUP2 MSTORE PUSH1 0x20 ADD DUP6 DUP2 MSTORE POP SWAP1 DUP1 PUSH1 0x1 DUP2 SLOAD ADD DUP1 DUP3 SSTORE DUP1 SWAP2 POP POP PUSH1 0x1 SWAP1 SUB SWAP1 PUSH1 0x0 MSTORE PUSH1 0x20 PUSH1 0x0 KECCAK256 SWAP1 PUSH1 0x2 MUL ADD PUSH1 0x0 SWAP1 SWAP2 SWAP1 SWAP2 SWAP1 SWAP2 POP PUSH1 0x0 DUP3 ADD MLOAD DUP2 PUSH1 0x0 ADD SSTORE PUSH1 0x20 DUP3 ADD MLOAD DUP2 PUSH1 0x1 ADD SWAP1 DUP1 MLOAD SWAP1 PUSH1 0x20 ADD SWAP1 PUSH2 0x437 SWAP3 SWAP2 SWAP1 PUSH2 0x5DC JUMP JUMPDEST POP POP POP DUP2 PUSH1 0x1 DUP5 PUSH1 0x40 MLOAD PUSH2 0x44B SWAP2 SWAP1 PUSH2 0xAE5 JUMP JUMPDEST SWAP1 DUP2 MSTORE PUSH1 0x20 ADD PUSH1 0x40 MLOAD DUP1 SWAP2 SUB SWAP1 KECCAK256 DUP2 SWAP1 SSTORE POP POP POP POP JUMP JUMPDEST PUSH1 0x2 DUP1 PUSH1 0x0 ADD SLOAD SWAP1 DUP1 PUSH1 0x1 ADD DUP1 SLOAD PUSH2 0x479 SWAP1 PUSH2 0x9F2 JUMP JUMPDEST DUP1 PUSH1 0x1F ADD PUSH1 0x20 DUP1 SWAP2 DIV MUL PUSH1 0x20 ADD PUSH1 0x40 MLOAD SWAP1 DUP2 ADD PUSH1 0x40 MSTORE DUP1 SWAP3 SWAP2 SWAP1 DUP2 DUP2 MSTORE PUSH1 0x20 ADD DUP3 DUP1 SLOAD PUSH2 0x4A5 SWAP1 PUSH2 0x9F2 JUMP JUMPDEST DUP1 ISZERO PUSH2 0x4F2 JUMPI DUP1 PUSH1 0x1F LT PUSH2 0x4C7 JUMPI PUSH2 0x100 DUP1 DUP4 SLOAD DIV MUL DUP4 MSTORE SWAP2 PUSH1 0x20 ADD SWAP2 PUSH2 0x4F2 JUMP JUMPDEST DUP3 ADD SWAP2 SWAP1 PUSH1 0x0 MSTORE PUSH1 0x20 PUSH1 0x0 KECCAK256 SWAP1 JUMPDEST DUP2 SLOAD DUP2 MSTORE SWAP1 PUSH1 0x1 ADD SWAP1 PUSH1 0x20 ADD DUP1 DUP4 GT PUSH2 0x4D5 JUMPI DUP3 SWAP1 SUB PUSH1 0x1F AND DUP3 ADD SWAP2 JUMPDEST POP POP POP POP POP SWAP1 POP DUP3 JUMP JUMPDEST PUSH1 0x9 DUP2 DUP2 SLOAD DUP2 LT PUSH2 0x50C JUMPI PUSH1 0x0 DUP1 REVERT JUMPDEST SWAP1 PUSH1 0x0 MSTORE PUSH1 0x20 PUSH1 0x0 KECCAK256 SWAP1 PUSH1 0x2 MUL ADD PUSH1 0x0 SWAP2 POP SWAP1 POP DUP1 PUSH1 0x0 ADD SLOAD SWAP1 DUP1 PUSH1 0x1 ADD DUP1 SLOAD PUSH2 0x535 SWAP1 PUSH2 0x9F2 JUMP JUMPDEST DUP1 PUSH1 0x1F ADD PUSH1 0x20 DUP1 SWAP2 DIV MUL PUSH1 0x20 ADD PUSH1 0x40 MLOAD SWAP1 DUP2 ADD PUSH1 0x40 MSTORE DUP1 SWAP3 SWAP2 SWAP1 DUP2 DUP2 MSTORE PUSH1 0x20 ADD DUP3 DUP1 SLOAD PUSH2 0x561 SWAP1 PUSH2 0x9F2 JUMP JUMPDEST DUP1 ISZERO PUSH2 0x5AE JUMPI DUP1 PUSH1 0x1F LT PUSH2 0x583 JUMPI PUSH2 0x100 DUP1 DUP4 SLOAD DIV MUL DUP4 MSTORE SWAP2 PUSH1 0x20 ADD SWAP2 PUSH2 0x5AE JUMP JUMPDEST DUP3 ADD SWAP2 SWAP1 PUSH1 0x0 MSTORE PUSH1 0x20 PUSH1 0x0 KECCAK256 SWAP1 JUMPDEST DUP2 SLOAD DUP2 MSTORE SWAP1 PUSH1 0x1 ADD SWAP1 PUSH1 0x20 ADD DUP1 DUP4 GT PUSH2 0x591 JUMPI DUP3 SWAP1 SUB PUSH1 0x1F AND DUP3 ADD SWAP2 JUMPDEST POP POP POP POP POP SWAP1 POP DUP3 JUMP JUMPDEST PUSH1 0x8 DUP2 DUP2 SLOAD DUP2 LT PUSH2 0x5C8 JUMPI PUSH1 0x0 DUP1 REVERT JUMPDEST SWAP1 PUSH1 0x0 MSTORE PUSH1 0x20 PUSH1 0x0 KECCAK256 ADD PUSH1 0x0 SWAP2 POP SWAP1 POP SLOAD DUP2 JUMP JUMPDEST DUP3 DUP1 SLOAD PUSH2 0x5E8 SWAP1 PUSH2 0x9F2 JUMP JUMPDEST SWAP1 PUSH1 0x0 MSTORE PUSH1 0x20 PUSH1 0x0 KECCAK256 SWAP1 PUSH1 0x1F ADD PUSH1 0x20 SWAP1 DIV DUP2 ADD SWAP3 DUP3 PUSH2 0x60A JUMPI PUSH1 0x0 DUP6 SSTORE PUSH2 0x651 JUMP JUMPDEST DUP3 PUSH1 0x1F LT PUSH2 0x623 JUMPI DUP1 MLOAD PUSH1 0xFF NOT AND DUP4 DUP1 ADD OR DUP6 SSTORE PUSH2 0x651 JUMP JUMPDEST DUP3 DUP1 ADD PUSH1 0x1 ADD DUP6 SSTORE DUP3 ISZERO PUSH2 0x651 JUMPI SWAP2 DUP3 ADD JUMPDEST DUP3 DUP2 GT ISZERO PUSH2 0x650 JUMPI DUP3 MLOAD DUP3 SSTORE SWAP2 PUSH1 0x20 ADD SWAP2 SWAP1 PUSH1 0x1 ADD SWAP1 PUSH2 0x635 JUMP JUMPDEST JUMPDEST POP SWAP1 POP PUSH2 0x65E SWAP2 SWAP1 PUSH2 0x662 JUMP JUMPDEST POP SWAP1 JUMP JUMPDEST JUMPDEST DUP1 DUP3 GT ISZERO PUSH2 0x67B JUMPI PUSH1 0x0 DUP2 PUSH1 0x0 SWAP1 SSTORE POP PUSH1 0x1 ADD PUSH2 0x663 JUMP JUMPDEST POP SWAP1 JUMP JUMPDEST PUSH1 0x0 PUSH1 0x40 MLOAD SWAP1 POP SWAP1 JUMP JUMPDEST PUSH1 0x0 DUP1 REVERT JUMPDEST PUSH1 0x0 DUP1 REVERT JUMPDEST PUSH1 0x0 DUP1 REVERT JUMPDEST PUSH1 0x0 DUP1 REVERT JUMPDEST PUSH1 0x0 PUSH1 0x1F NOT PUSH1 0x1F DUP4 ADD AND SWAP1 POP SWAP2 SWAP1 POP JUMP JUMPDEST PUSH32 0x4E487B7100000000000000000000000000000000000000000000000000000000 PUSH1 0x0 MSTORE PUSH1 0x41 PUSH1 0x4 MSTORE PUSH1 0x24 PUSH1 0x0 REVERT JUMPDEST PUSH2 0x6E6 DUP3 PUSH2 0x69D JUMP JUMPDEST DUP2 ADD DUP2 DUP2 LT PUSH8 0xFFFFFFFFFFFFFFFF DUP3 GT OR ISZERO PUSH2 0x705 JUMPI PUSH2 0x704 PUSH2 0x6AE JUMP JUMPDEST JUMPDEST DUP1 PUSH1 0x40 MSTORE POP POP POP JUMP JUMPDEST PUSH1 0x0 PUSH2 0x718 PUSH2 0x67F JUMP JUMPDEST SWAP1 POP PUSH2 0x724 DUP3 DUP3 PUSH2 0x6DD JUMP JUMPDEST SWAP2 SWAP1 POP JUMP JUMPDEST PUSH1 0x0 PUSH8 0xFFFFFFFFFFFFFFFF DUP3 GT ISZERO PUSH2 0x744 JUMPI PUSH2 0x743 PUSH2 0x6AE JUMP JUMPDEST JUMPDEST PUSH2 0x74D DUP3 PUSH2 0x69D JUMP JUMPDEST SWAP1 POP PUSH1 0x20 DUP2 ADD SWAP1 POP SWAP2 SWAP1 POP JUMP JUMPDEST DUP3 DUP2 DUP4 CALLDATACOPY PUSH1 0x0 DUP4 DUP4 ADD MSTORE POP POP POP JUMP JUMPDEST PUSH1 0x0 PUSH2 0x77C PUSH2 0x777 DUP5 PUSH2 0x729 JUMP JUMPDEST PUSH2 0x70E JUMP JUMPDEST SWAP1 POP DUP3 DUP2 MSTORE PUSH1 0x20 DUP2 ADD DUP5 DUP5 DUP5 ADD GT ISZERO PUSH2 0x798 JUMPI PUSH2 0x797 PUSH2 0x698 JUMP JUMPDEST JUMPDEST PUSH2 0x7A3 DUP5 DUP3 DUP6 PUSH2 0x75A JUMP JUMPDEST POP SWAP4 SWAP3 POP POP POP JUMP JUMPDEST PUSH1 0x0 DUP3 PUSH1 0x1F DUP4 ADD SLT PUSH2 0x7C0 JUMPI PUSH2 0x7BF PUSH2 0x693 JUMP JUMPDEST JUMPDEST DUP2 CALLDATALOAD PUSH2 0x7D0 DUP5 DUP3 PUSH1 0x20 DUP7 ADD PUSH2 0x769 JUMP JUMPDEST SWAP2 POP POP SWAP3 SWAP2 POP POP JUMP JUMPDEST PUSH1 0x0 PUSH1 0x20 DUP3 DUP5 SUB SLT ISZERO PUSH2 0x7EF JUMPI PUSH2 0x7EE PUSH2 0x689 JUMP JUMPDEST JUMPDEST PUSH1 0x0 DUP3 ADD CALLDATALOAD PUSH8 0xFFFFFFFFFFFFFFFF DUP2 GT ISZERO PUSH2 0x80D JUMPI PUSH2 0x80C PUSH2 0x68E JUMP JUMPDEST JUMPDEST PUSH2 0x819 DUP5 DUP3 DUP6 ADD PUSH2 0x7AB JUMP JUMPDEST SWAP2 POP POP SWAP3 SWAP2 POP POP JUMP JUMPDEST PUSH1 0x0 DUP2 SWAP1 POP SWAP2 SWAP1 POP JUMP JUMPDEST PUSH2 0x835 DUP2 PUSH2 0x822 JUMP JUMPDEST DUP3 MSTORE POP POP JUMP JUMPDEST PUSH1 0x0 PUSH1 0x20 DUP3 ADD SWAP1 POP PUSH2 0x850 PUSH1 0x0 DUP4 ADD DUP5 PUSH2 0x82C JUMP JUMPDEST SWAP3 SWAP2 POP POP JUMP JUMPDEST PUSH1 0x0 DUP2 MLOAD SWAP1 POP SWAP2 SWAP1 POP JUMP JUMPDEST PUSH1 0x0 DUP3 DUP3 MSTORE PUSH1 0x20 DUP3 ADD SWAP1 POP SWAP3 SWAP2 POP POP JUMP JUMPDEST PUSH1 0x0 JUMPDEST DUP4 DUP2 LT ISZERO PUSH2 0x890 JUMPI DUP1 DUP3 ADD MLOAD DUP2 DUP5 ADD MSTORE PUSH1 0x20 DUP2 ADD SWAP1 POP PUSH2 0x875 JUMP JUMPDEST DUP4 DUP2 GT ISZERO PUSH2 0x89F JUMPI PUSH1 0x0 DUP5 DUP5 ADD MSTORE JUMPDEST POP POP POP POP JUMP JUMPDEST PUSH1 0x0 PUSH2 0x8B0 DUP3 PUSH2 0x856 JUMP JUMPDEST PUSH2 0x8BA DUP2 DUP6 PUSH2 0x861 JUMP JUMPDEST SWAP4 POP PUSH2 0x8CA DUP2 DUP6 PUSH1 0x20 DUP7 ADD PUSH2 0x872 JUMP JUMPDEST PUSH2 0x8D3 DUP2 PUSH2 0x69D JUMP JUMPDEST DUP5 ADD SWAP2 POP POP SWAP3 SWAP2 POP POP JUMP JUMPDEST PUSH1 0x0 PUSH1 0x40 DUP3 ADD SWAP1 POP PUSH2 0x8F3 PUSH1 0x0 DUP4 ADD DUP6 PUSH2 0x82C JUMP JUMPDEST DUP2 DUP2 SUB PUSH1 0x20 DUP4 ADD MSTORE PUSH2 0x905 DUP2 DUP5 PUSH2 0x8A5 JUMP JUMPDEST SWAP1 POP SWAP4 SWAP3 POP POP POP JUMP JUMPDEST PUSH2 0x917 DUP2 PUSH2 0x822 JUMP JUMPDEST DUP2 EQ PUSH2 0x922 JUMPI PUSH1 0x0 DUP1 REVERT JUMPDEST POP JUMP JUMPDEST PUSH1 0x0 DUP2 CALLDATALOAD SWAP1 POP PUSH2 0x934 DUP2 PUSH2 0x90E JUMP JUMPDEST SWAP3 SWAP2 POP POP JUMP JUMPDEST PUSH1 0x0 PUSH1 0x20 DUP3 DUP5 SUB SLT ISZERO PUSH2 0x950 JUMPI PUSH2 0x94F PUSH2 0x689 JUMP JUMPDEST JUMPDEST PUSH1 0x0 PUSH2 0x95E DUP5 DUP3 DUP6 ADD PUSH2 0x925 JUMP JUMPDEST SWAP2 POP POP SWAP3 SWAP2 POP POP JUMP JUMPDEST PUSH1 0x0 DUP1 PUSH1 0x40 DUP4 DUP6 SUB SLT ISZERO PUSH2 0x97E JUMPI PUSH2 0x97D PUSH2 0x689 JUMP JUMPDEST JUMPDEST PUSH1 0x0 DUP4 ADD CALLDATALOAD PUSH8 0xFFFFFFFFFFFFFFFF DUP2 GT ISZERO PUSH2 0x99C JUMPI PUSH2 0x99B PUSH2 0x68E JUMP JUMPDEST JUMPDEST PUSH2 0x9A8 DUP6 DUP3 DUP7 ADD PUSH2 0x7AB JUMP JUMPDEST SWAP3 POP POP PUSH1 0x20 PUSH2 0x9B9 DUP6 DUP3 DUP7 ADD PUSH2 0x925 JUMP JUMPDEST SWAP2 POP POP SWAP3 POP SWAP3 SWAP1 POP JUMP JUMPDEST PUSH32 0x4E487B7100000000000000000000000000000000000000000000000000000000 PUSH1 0x0 MSTORE PUSH1 0x22 PUSH1 0x4 MSTORE PUSH1 0x24 PUSH1 0x0 REVERT JUMPDEST PUSH1 0x0 PUSH1 0x2 DUP3 DIV SWAP1 POP PUSH1 0x1 DUP3 AND DUP1 PUSH2 0xA0A JUMPI PUSH1 0x7F DUP3 AND SWAP2 POP JUMPDEST PUSH1 0x20 DUP3 LT DUP2 EQ ISZERO PUSH2 0xA1E JUMPI PUSH2 0xA1D PUSH2 0x9C3 JUMP JUMPDEST JUMPDEST POP SWAP2 SWAP1 POP JUMP JUMPDEST PUSH32 0x4E487B7100000000000000000000000000000000000000000000000000000000 PUSH1 0x0 MSTORE PUSH1 0x11 PUSH1 0x4 MSTORE PUSH1 0x24 PUSH1 0x0 REVERT JUMPDEST PUSH1 0x0 PUSH2 0xA5E DUP3 PUSH2 0x822 JUMP JUMPDEST SWAP2 POP PUSH2 0xA69 DUP4 PUSH2 0x822 JUMP JUMPDEST SWAP3 POP DUP3 PUSH32 0xFFFFFFFFFFFFFFFFFFFFFFFFFFFFFFFFFFFFFFFFFFFFFFFFFFFFFFFFFFFFFFFF SUB DUP3 GT ISZERO PUSH2 0xA9E JUMPI PUSH2 0xA9D PUSH2 0xA24 JUMP JUMPDEST JUMPDEST DUP3 DUP3 ADD SWAP1 POP SWAP3 SWAP2 POP POP JUMP JUMPDEST PUSH1 0x0 DUP2 SWAP1 POP SWAP3 SWAP2 POP POP JUMP JUMPDEST PUSH1 0x0 PUSH2 0xABF DUP3 PUSH2 0x856 JUMP JUMPDEST PUSH2 0xAC9 DUP2 DUP6 PUSH2 0xAA9 JUMP JUMPDEST SWAP4 POP PUSH2 0xAD9 DUP2 DUP6 PUSH1 0x20 DUP7 ADD PUSH2 0x872 JUMP JUMPDEST DUP1 DUP5 ADD SWAP2 POP POP SWAP3 SWAP2 POP POP JUMP JUMPDEST PUSH1 0x0 PUSH2 0xAF1 DUP3 DUP5 PUSH2 0xAB4 JUMP JUMPDEST SWAP2 POP DUP2 SWAP1 POP SWAP3 SWAP2 POP POP JUMP INVALID LOG2 PUSH5 0x6970667358 0x22 SLT KECCAK256 PUSH16 0x7867B023534A3DA630F96A467542C40F SWAP15 PUSH32 0x3C8971BAF0CEDFACFCDCE7DF2164736F6C63430008080033A264697066735822 SLT KECCAK256 0xB4 CALLDATACOPY PUSH25 0x826E0F506010BD4B553A6CFBD19D032BC8A2812DFAC1202F8B COINBASE SLOAD PUSH11 0x2664736F6C634300080800 CALLER "
				},
				"gasEstimates": {
					"creation": {
						"codeDepositCost": "801000",
						"executionCost": "838",
						"totalCost": "801838"
					},
					"external": {
						"createSimpleSTorageContract()": "infinite",
						"simpleStorage()": "infinite"
					}
				},
				"methodIdentifiers": {
					"createSimpleSTorageContract()": "540d719e",
					"simpleStorage()": "6be0d6bf"
				}
			},
			"storageLayout": {
				"storage": [
					{
						"astId": 100,
						"contract": "contracts/StorageFactory.sol:StorageFactory",
						"label": "simpleStorage",
						"offset": 0,
						"slot": "0",
						"type": "t_contract(SimpleStorage)94"
					}
				],
				"types": {
					"t_contract(SimpleStorage)94": {
						"encoding": "inplace",
						"label": "contract SimpleStorage",
						"numberOfBytes": "20"
					}
				}
			},
			"userdoc": {
				"kind": "user",
				"methods": {},
				"version": 1
			}
		}
	}
}